S01700004763634170706C69636174696F6E312E737265635B
S11300000C942A000C9416140C9475150C94A615D3
S11300100C9447000C9447000C9447000C94470040
S11300200C9447000C9447000C94D5180C94A41815
S11300300C9474170C9447000C9447000C944700DC
S11300400C9447000C9447000C9447000C94470010
S11300500C94470011241FBECFE5D8E0DEBFCDBF0E
S113006014E0A0E6B0E0E4E8FAE302C005900D92E3
S1130070A632B107D9F724E0A6E2B4E001C01D928C
S1130080A133B207E1F70E9449000C94401D0C947F
S11300900000CF93DF93CDB7DEB7C654D1090FB6B6
S11300A0F894DEBF0FBECDBF61E088E00E94B612B7
S11300B061E080E00E94B61261E081E00E94B61225
S11300C061E082E00E94B61261E083E00E94B61211
S11300D061E084E00E94B6120E940C160E942D1A60
S11300E081E00E94E8150E94D71583E00E94AB13BB
S11300F00E94750D85E0E4E1F3E0DE01D496019001
S11301000D928A95E1F781E392E39AAF89AF83E395
S113011094E39CAF8BAF1A82198285C049815A81BE
S11301209E012C5C3F4F89819A81820F931FFC01B1
S11301308081BA010E942A0C80E090E0A0EAB1E438
S11301408A8B9B8BAC8BBD8B20E030E04AE755E477
S11301506A897B898C899D890E94A21CDC01CB0160
S11301608E8B9F8BA88FB98F20E030E040E85FE34F
S11301706E897F89888D998D0E94451B88232CF474
S113018081E090E09B8F8A8F3FC020E03FEF4FE7F4
S113019057E46E897F89888D998D0E949D1C18165D
S11301A04CF520E030E040E251E46A897B898C8997
S11301B09D890E94A21CDC01CB01BC01CD010E94DF
S11301C0BC1BDC01CB019B8F8A8F0FC080E991E0BF
S11301D09D8F8C8F8C8D9D8D0197F1F79D8F8C8FCA
S11301E08A8D9B8D01979B8F8A8F8A8D9B8D892BFE
S11301F069F714C06E897F89888D998D0E94BC1B14
S1130200DC01CB019B8F8A8F8A8D9B8D9F8F8E8F74
S11302108E8D9F8D0197F1F79F8F8E8F89819A81A3
S113022001969A83898389819A8105970CF476CF04
S11302301C821B8285E090E09E838D838AC04D8161
S11302405E819E01275C3F4F8B819C81820F931FAF
S1130250FC018081BA010E942A0C80E090E0A0EAAF
S1130260B1E48A879B87AC87BD8720E030E04AE70A
S113027055E46A857B858C859D850E94A21CDC01E2
S1130280CB0188A399A3AAA3BBA320E030E040E854
S11302905FE368A179A18AA19BA10E94451B8823E1
S11302A02CF481E090E09DA38CA33FC020E03FEFBD
S11302B04FE757E468A179A18AA19BA10E949D1CE4
S11302C018164CF520E030E040E251E46A857B8565
S11302D08C859D850E94A21CDC01CB01BC01CD0153
S11302E00E94BC1BDC01CB019DA38CA30FC080E941
S11302F091E09FA38EA38EA19FA10197F1F79FA3E5
S11303008EA38CA19DA101979DA38CA38CA19DA1DB
S1130310892B69F714C068A179A18AA19BA10E94C5
S1130320BC1BDC01CB019DA38CA38CA19DA199A72F
S113033088A788A599A50197F1F799A788A78B8124
S11303409C8101969C838B838D819E8101969E83E3
S11303508D838B819C8104970CF471CF1F82198645
S11303608F81833009F40CC20E943C04882309F471
S1130370FFC11F8280E690E00E948B1A81E088878B
S1130380F2C180E790E00E948B1ACE01CD960E94C4
S1130390AF04CE01CD9660E271E00E94371D892B37
S11303A071F40E94EF04882329F082E291E00E9414
S11303B08B1AD9C18CE391E00E948B1AD4C1CE016F
S11303C0CD9664E471E00E94371D892B71F40E947C
S11303D06D06882329F086E491E00E948B1AC3C13C
S11303E08CE391E00E948B1ABEC1CE01CD9660E6EB
S11303F071E00E94371D892B71F40E94EB0788235A
S113040029F082E691E00E948B1AADC18EE791E05B
S11304100E948B1AA8C1CE01CD9666E871E00E94B5
S1130420371D892B71F40E94D609882329F082E6AE
S113043091E00E948B1A97C18EE791E00E948B1A7B
S113044092C1CE01CD9668E871E00E94371D892BD8
S113045009F07BC181E0898773C18AE891E00E9439
S11304608B1ACE01CD960E94AF04CE01CD966CE5D9
S113047072E00E94371D892B61F480E00E94FE0B1C
S113048062E08AE00E94A51180E692E00E94F210E8
S113049057C1CE01CD9667E672E00E94371D892BC5
S11304A061F481E00E94FE0B62E08AE00E94A511E3
S11304B089E692E00E94F21043C1CE01CD9660E736
S11304C072E00E94371D892B61F482E00E94FE0BCA
S11304D062E08AE00E94A51182E792E00E94F21095
S11304E02FC1CE01CD9669E772E00E94371D892B9A
S11304F061F483E00E94FE0B62E08AE00E94A51191
S11305008BE792E00E94F2101BC1CE01CD9662E807
S113051072E00E94371D892B61F484E00E94FE0B77
S113052062E08AE00E94A51184E892E00E94F21041
S113053007C1CE01CD966BE872E00E94371D892B6E
S113054061F485E00E94FE0B62E08AE00E94A5113E
S11305508DE892E00E94F210F3C0CE01CD9664E9DA
S113056072E00E94371D892B69F461E080E00E94EB
S1130570C11162E080E00E94A51189E992E00E9425
S1130580F210DEC0CE01CD966CE972E00E94371DF8
S1130590892B69F461E081E00E94C11162E082E08C
S11305A00E94A51181EA92E00E94F210C9C0CE0116
S11305B0CD9664EA72E00E94371D892B69F461E0EC
S11305C082E00E94C11162E084E00E94A51189EAE0
S11305D092E00E94F210B4C0CE01CD966CEA72E0B3
S11305E00E94371D892B69F461E083E00E94C111E8
S11305F062E086E00E94A51181EB92E00E94F21075
S11306009FC0CE01CD9664EB72E00E94371D892B0A
S113061069F461E084E00E94C11162E088E00E9414
S1130620A51189EB92E00E94F2108AC0CE01CD960A
S11306306CEB72E00E94371D892B69F460E080E066
S11306400E94C11162E080E00E94A51182EC92E058
S11306500E94F21075C0CE01CD9665EC72E00E9446
S1130660371D892B69F460E081E00E94C11162E0CA
S113067082E00E94A51182EC92E00E94F21060C018
S1130680CE01CD966BEC72E00E94371D892B69F484
S113069060E082E00E94C11162E084E00E94A51142
S11306A082EC92E00E94F2104BC0CE01CD9661ED37
S11306B072E00E94371D892B69F460E083E00E9498
S11306C0C11162E086E00E94A51182EC92E00E94D2
S11306D0F21036C0CE01CD9667ED72E00E94371D50
S11306E0892B69F460E084E00E94C11162E088E033
S11306F00E94A51182EC92E00E94F21021C0CE016A
S1130700CD966DED72E00E94371D892B21F480E0B7
S11307100E94C10B15C0CE01CD9662EE72E00E941C
S1130720371D892B21F481E00E94C10B09C0CE0141
S1130730CD9664E471E00E94371D892B09F4198673
S11307408985813009F489CE0EC0CE01CD9668EE3C
S113075072E00E94371D892B11F4188604C08AEEBA
S113076092E00E948B1A8885882309F00ACEF8CD7E
S113077088EF92E00E948B1A8F818F5F8F83F0CD78
S113078061E088E00E94C11180E090E0AAEFB4E447
S11307908E879F87A88BB98B20E030E04AE755E429
S11307A06E857F85888999890E94A21CDC01CB0112
S11307B08AA79BA7ACA7BDA720E030E040E85FE391
S11307C06AA57BA58CA59DA50E94451B88232CF4B6
S11307D081E090E09FA78EA73FC020E03FEF4FE766
S11307E057E46AA57BA58CA59DA50E949D1C18169F
S11307F04CF520E030E040E251E46E857F85888945
S113080099890E94A21CDC01CB01BC01CD010E948C
S1130810BC1BDC01CB019FA78EA70FC080E991E030
S113082099AB88AB88A999A90197F1F799AB88ABE3
S11308308EA59FA501979FA78EA78EA59FA5892BFF
S113084069F714C06AA57BA58CA59DA50E94BC1B55
S1130850DC01CB019FA78EA78EA59FA59BAB8AAB7E
S11308608AA99BA90197F1F79BAB8AAB60E088E06A
S11308700E94C1111F8274CD1F93CF93DF93CDB714
S1130880DEB729970FB6F894DEBF0FBECDBF8AE15D
S113089093E00E948B1ACE0101960E94AF048091CE
S11308A02604853011F080E050C082E293E00E947B
S11308B08B1ACE0106960E94AF04809126048430E0
S11308C011F080E042C0198180E090E00E94B20CF7
S11308D01817D1F51A8181E090E00E94B20C181724
S11308E099F51B8182E090E00E94B20C181761F523
S11308F01C8183E090E00E94B20C181729F51D8139
S113090084E090E00E94B20C1817F1F41E8185E097
S113091090E00E94B20C1817B9F41F8186E090E0B1
S11309200E94B20C181781F4188587E090E00E94A9
S1130930B20C181749F4198588E090E00E94B20CB3
S1130940181711F481E001C080E029960FB6F894DD
S1130950DEBF0FBECDBFDF91CF911F910895CF931E
S1130960DF9300D000D0CDB7DEB79C838B83198290
S11309701A821092260418C00E94B51A89838981AC
S11309808D3391F08A81882F90E02B813C81820FF6
S1130990931F2981FC012083809126048F5F80931B
S11309A026048A818F5F8A8389818D3329F7809118
S11309B02604882F90E02B813C81820F931FFC0139
S11309C010828DE00E946D1A8AE00E946D1A000068
S11309D00F900F900F900F90DF91CF910895CF93C8
S11309E0DF93CDB7DEB7EB970FB6F894DEBF0FBE3B
S11309F0CDBF19821A821B828FE293E00E948B1A68
S1130A00CE0188960E94AF0485E68983ADC08981B2
S1130A10882F90E00E94B20C8F3F09F0A2C0898118
S1130A208A831D821C828981882F90E09F838E8314
S1130A308AC04E815F819E01285D3F4F8C819D81DC
S1130A40820F931FFC018081BA010E942A0C80E06E
S1130A5090E0A0EAB1E4888B998BAA8BBB8B20E051
S1130A6030E04AE755E4688979898A899B890E943C
S1130A70A21CDC01CB018C8B9D8BAE8BBF8B20E049
S1130A8030E040E85FE36C897D898E899F890E940C
S1130A90451B88232CF481E090E0998F888F3FC018
S1130AA020E03FEF4FE757E46C897D898E899F8969
S1130AB00E949D1C18164CF520E030E040E251E401
S1130AC0688979898A899B890E94A21CDC01CB01EF
S1130AD0BC01CD010E94BC1BDC01CB01998F888F26
S1130AE00FC080E991E09B8F8A8F8A8D9B8D01973F
S1130AF0F1F79B8F8A8F888D998D0197998F888FB5
S1130B00888D998D892B69F714C06C897D898E89AC
S1130B109F890E94BC1BDC01CB01998F888F888D33
S1130B20998D9D8F8C8F8C8D9D8D0197F1F79D8F65
S1130B308C8F8E819F8101969F838E838C819D8172
S1130B4001969D838C8380912604282F30E08C812C
S1130B509D81821793070CF46CCF8B818F5F8B83FD
S1130B6007C089818C5E89838981883C08F44FCFD2
S1130B708B81882309F4A7C08DE393E00E948B1A2C
S1130B80CE01C2960E94AF048A81865F8A83198649
S1130B9018868A81882F90E09B878A878AC04A8535
S1130BA05B859E012E5C3F4F88859985820F931F3C
S1130BB0FC018081BA010E942A0C80E090E0A0EA46
S1130BC0B1E48C879D87AE87BF8720E030E04AE799
S1130BD055E46C857D858E859F850E94A21CDC0171
S1130BE0CB018E8F9F8FA8A3B9A320E030E040E80B
S1130BF05FE36E8D7F8D88A199A10E94451B882398
S1130C002CF481E090E09BA38AA33FC020E03FEF57
S1130C104FE757E46E8D7F8D88A199A10E949D1C9A
S1130C2018164CF520E030E040E251E46C857D85F7
S1130C308E859F850E94A21CDC01CB01BC01CD01E5
S1130C400E94BC1BDC01CB019BA38AA30FC080E9DB
S1130C5091E09DA38CA38CA19DA10197F1F79DA385
S1130C608CA38AA19BA101979BA38AA38AA19BA180
S1130C70892B69F714C06E8D7F8D88A199A10E947C
S1130C80BC1BDC01CB019BA38AA38AA19BA19FA3CC
S1130C908EA38EA19FA10197F1F79FA38EA38A85AE
S1130CA09B8501969B878A87888599850196998774
S1130CB0888780912604282F30E0888599858217BB
S1130CC093070CF46CCF8B81EB960FB6F894DEBFD0
S1130CD00FBECDBFDF91CF910895CF93DF93CDB7F2
S1130CE0DEB7EB970FB6F894DEBF0FBECDBF198207
S1130CF01A821B8280E593E00E948B1ACE018896AB
S1130D000E94AF048BE08983ADC08981882F90E075
S1130D100E94B20C8F3F09F0A2C089818A831D8290
S1130D201C828981882F90E09F838E838AC04E81A4
S1130D305F819E01285D3F4F8C819D81820F931FAF
S1130D40FC018081BA010E942A0C80E090E0A0EAB4
S1130D50B1E4888B998BAA8BBB8B20E030E04AE707
S1130D6055E4688979898A899B890E94A21CDC01DF
S1130D70CB018C8B9D8BAE8BBF8B20E030E040E8A9
S1130D805FE36C897D898E899F890E94451B882336
S1130D902CF481E090E0998F888F3FC020E03FEFF2
S1130DA04FE757E46C897D898E899F890E949D1C39
S1130DB018164CF520E030E040E251E46889798966
S1130DC08A899B890E94A21CDC01CB01BC01CD0154
S1130DD00E94BC1BDC01CB01998F888F0FC080E976
S1130DE091E09B8F8A8F8A8D9B8D0197F1F79B8F62
S1130DF08A8F888D998D0197998F888F888D998D89
S1130E00892B69F714C06C897D898E899F890E941A
S1130E10BC1BDC01CB01998F888F888D998D9D8FA8
S1130E208C8F8C8D9D8D0197F1F79D8F8C8F8E818A
S1130E309F8101969F838E838C819D8101969D83E2
S1130E408C8380912604282F30E08C819D81821729
S1130E5093070CF46CCF8B818F5F8B8307C08981E0
S1130E608C5E89838981843608F44FCF8B818823F3
S1130E7009F4A7C08FE593E00E948B1ACE01C296B5
S1130E800E94AF048A81865F8A83198618868A81C4
S1130E90882F90E09B878A878AC04A855B859E015C
S1130EA02E5C3F4F88859985820F931FFC018081BA
S1130EB0BA010E942A0C80E090E0A0EAB1E48C8799
S1130EC09D87AE87BF8720E030E04AE755E46C8514
S1130ED07D858E859F850E94A21CDC01CB018E8FAF
S1130EE09F8FA8A3B9A320E030E040E85FE36E8DB4
S1130EF07F8D88A199A10E94451B88232CF481E051
S1130F0090E09BA38AA33FC020E03FEF4FE757E464
S1130F106E8D7F8D88A199A10E949D1C18164CF599
S1130F2020E030E040E251E46C857D858E859F852C
S1130F300E94A21CDC01CB01BC01CD010E94BC1BA0
S1130F40DC01CB019BA38AA30FC080E991E09DA3A0
S1130F508CA38CA19DA10197F1F79DA38CA38AA1D9
S1130F609BA101979BA38AA38AA19BA1892B69F7C3
S1130F7014C06E8D7F8D88A199A10E94BC1BDC01D9
S1130F80CB019BA38AA38AA19BA19FA38EA38EA11D
S1130F909FA10197F1F79FA38EA38A859B85019654
S1130FA09B878A8788859985019699878887809108
S1130FB02604282F30E088859985821793070CF43E
S1130FC06CCF8B81EB960FB6F894DEBF0FBECDBF0E
S1130FD0DF91CF9108951F93CF93DF93CDB7DEB701
S1130FE0EC970FB6F894DEBF0FBECDBF19821A82FC
S1130FF01B8283E793E00E948B1ACE01C3960E9462
S1131000AF0485E68C83BAC08C81882F90E00E945F
S1131010B20C8F3F09F4ACC01D828C818E83A2C0B8
S11310208D81882F90E09E012D5C3F4F820F931F8E
S1131030FC0110818E81882F90E00E94B20C181759
S113104009F089C08A818F5F8A83809126049A81FE
S1131050981709F081C08E81882F90E001960E9434
S1131060B20C8F3F09F078C08C81898380E090E0D6
S1131070A6E9B3E4898B9A8BAB8BBC8B20E030E080
S11310804AE755E469897A898B899C890E94A21C64
S1131090DC01CB018D8B9E8BAF8BB88F20E030E0D1
S11310A040E85FE36D897E898F89988D0E94451B96
S11310B088232CF481E090E09A8F898F3FC020E050
S11310C03FEF4FE757E46D897E898F89988D0E94A1
S11310D09D1C18164CF520E030E040E251E469898B
S11310E07A898B899C890E94A21CDC01CB01BC01FA
S11310F0CD010E94BC1BDC01CB019A8F898F0FC0EC
S113110080E991E09C8F8B8F8B8D9C8D0197F1F7FB
S11311109C8F8B8F898D9A8D01979A8F898F898D5A
S11311209A8D892B69F714C06D897E898F89988D72
S11311300E94BC1BDC01CB019A8F898F898D9A8D0B
S11311409E8F8D8F8D8D9E8D0197F1F79E8F8D8F44
S113115081E08B830DC01A828E818F5F8E838D8197
S11311608F5F8D83809126049D81981708F458CF52
S11311708B81813041F08C818C5E8C838C81883CA6
S113118008F442CF01C000008981882309F403C117
S11311901F8289818887F9C08885882F90E0BC01E7
S11311A08FEF0E942A0C80E090E0A0EAB1E48D87E2
S11311B09E87AF87B88B20E030E04AE755E46D8521
S11311C07E858F8598890E94A21CDC01CB0189A7AA
S11311D09AA7ABA7BCA720E030E040E85FE369A58D
S11311E07AA58BA59CA50E94451B88232CF481E03D
S11311F090E09EA78DA73FC020E03FEF4FE757E464
S113120069A57AA58BA59CA50E949D1C18164CF572
S113121020E030E040E251E46D857E858F85988939
S11312200E94A21CDC01CB01BC01CD010E94BC1BAD
S1131230DC01CB019EA78DA70FC080E991E098AB9C
S11312408FA78FA598A90197F1F798AB8FA78DA5C4
S11312509EA501979EA78DA78DA59EA5892B69F7AD
S113126014C069A57AA58BA59CA50E94BC1BDC01B2
S1131270CB019EA78DA78DA59EA59AAB89AB89A905
S11312809AA90197F1F79AAB89AB8885882F90E0EA
S11312900A96BC018FEF0E942A0C80E090E0A0EA3D
S11312A0B1E489879A87AB87BC8720E030E04AE7BE
S11312B055E469857A858B859C850E94A21CDC0196
S11312C0CB018F8F98A3A9A3BAA320E030E040E814
S11312D05FE36F8D78A189A19AA10E94451B8823A1
S11312E02CF481E090E09CA38BA33FC020E03FEF6F
S11312F04FE757E46F8D78A189A19AA10E949D1CA4
S113130018164CF520E030E040E251E469857A8516
S11313108B859C850E94A21CDC01CB01BC01CD0104
S11313200E94BC1BDC01CB019CA38BA30FC080E9F2
S113133091E09EA38DA38DA19EA10197F1F79EA399
S11313408DA38BA19CA101979CA38BA38BA19CA192
S1131350892B69F714C06F8D78A189A19AA10E9485
S1131360BC1BDC01CB019CA38BA38BA19CA198A7E4
S11313708FA38FA198A50197F1F798A78FA38885CC
S11313808F5F88878F818F5F8F838F818A3008F486
S113139003CF81E001C080E0EC960FB6F894DEBF85
S11313A00FBECDBFDF91CF911F9108951F93CF93AF
S11313B0DF93CDB7DEB7EC970FB6F894DEBF0FBE60
S11313C0CDBF19821A821B8283E793E00E948B1A95
S11313D0CE01C3960E94AF048BE08C83BAC08C818B
S11313E0882F90E00E94B20C8F3F09F4ACC01D829C
S11313F08C818E83A2C08D81882F90E09E012D5C0C
S11314003F4F820F931FFC0110818E81882F90E043
S11314100E94B20C181709F089C08A818F5F8A83F1
S1131420809126049A81981709F081C08E81882FB3
S113143090E001960E94B20C8F3F09F078C08C8135
S1131440898380E090E0A6E9B3E4898B9A8BAB8B27
S1131450BC8B20E030E04AE755E469897A898B89BE
S11314609C890E94A21CDC01CB018D8B9E8BAF8BCF
S1131470B88F20E030E040E85FE36D897E898F8992
S1131480988D0E94451B88232CF481E090E09A8F6C
S1131490898F3FC020E03FEF4FE757E46D897E8995
S11314A08F89988D0E949D1C18164CF520E030E021
S11314B040E251E469897A898B899C890E94A21C43
S11314C0DC01CB01BC01CD010E94BC1BDC01CB01C2
S11314D09A8F898F0FC080E991E09C8F8B8F8B8DC1
S11314E09C8D0197F1F79C8F8B8F898D9A8D019735
S11314F09A8F898F898D9A8D892B69F714C06D898C
S11315007E898F89988D0E94BC1BDC01CB019A8F48
S1131510898F898D9A8D9E8F8D8F8D8D9E8D01974C
S1131520F1F79E8F8D8F81E08B830DC01A828E819F
S11315308F5F8E838D818F5F8D83809126049D8143
S1131540981708F458CF8B81813041F08C818C5EE0
S11315508C838C81843608F442CF01C000008981D9
S1131560882309F403C11F8289818887F9C088858B
S1131570882F90E0BC018FEF0E942A0C80E090E05D
S1131580A0EAB1E48D879E87AF87B88B20E030E076
S11315904AE755E46D857E858F8598890E94A21C53
S11315A0DC01CB0189A79AA7ABA7BCA720E030E058
S11315B040E85FE369A57AA58BA59CA50E94451B1D
S11315C088232CF481E090E09EA78DA73FC020E003
S11315D03FEF4FE757E469A57AA58BA59CA50E9428
S11315E09D1C18164CF520E030E040E251E46D8576
S11315F07E858F8598890E94A21CDC01CB01BC01E9
S1131600CD010E94BC1BDC01CB019EA78DA70FC09E
S113161080E991E098AB8FA78FA598A90197F1F77E
S113162098AB8FA78DA59EA501979EA78DA78DA585
S11316309EA5892B69F714C069A57AA58BA59CA5DD
S11316400E94BC1BDC01CB019EA78DA78DA59EA586
S11316509AAB89AB89A99AA90197F1F79AAB89AB9F
S11316608885882F90E00A96BC018FEF0E942A0C8F
S113167080E090E0A0EAB1E489879A87AB87BC87D1
S113168020E030E04AE755E469857A858B859C85BE
S11316900E94A21CDC01CB018F8F98A3A9A3BAA33B
S11316A020E030E040E85FE36F8D78A189A19AA142
S11316B00E94451B88232CF481E090E09CA38BA31B
S11316C03FC020E03FEF4FE757E46F8D78A189A139
S11316D09AA10E949D1C18164CF520E030E040E2CF
S11316E051E469857A858B859C850E94A21CDC0166
S11316F0CB01BC01CD010E94BC1BDC01CB019CA32E
S11317008BA30FC080E991E09EA38DA38DA19EA120
S11317100197F1F79EA38DA38BA19CA101979CA394
S11317208BA38BA19CA1892B69F714C06F8D78A121
S113173089A19AA10E94BC1BDC01CB019CA38BA3B1
S11317408BA19CA198A78FA38FA198A50197F1F7CE
S113175098A78FA388858F5F88878F818F5F8F83FA
S11317608F818A3008F403CF81E001C080E0EC96D9
S11317700FB6F894DEBF0FBECDBFDF91CF911F919E
S11317800895CF93DF931F92CDB7DEB789830E946C
S113179039190E94D71561E08DE10E94B61282E3E7
S11317A090E00E94CD198DE893E00E948B1A898104
S11317B0813071F40E941C118FE893E00E94F210B2
S11317C060E070E080E291E40E94801981E012C040
S11317D08981882371F40E941C118BE993E00E9493
S11317E0F21060E070E080EA90E40E94801981E0E9
S11317F001C080E00F90DF91CF910895CF93DF93E4
S113180000D0CDB7DEB78A8361E08BE00E94B612C8
S11318108A81882319F40E94811816C08A8188233A
S113182099F08A81863080F40E94A71781E00E9493
S113183021198A81880F880F982F990F990F890F82
S1131840898389810E94061900000F900F90DF910F
S1131850CF910895CF93DF93CDB7DEB727970FB617
S1131860F894DEBF0FBECDBF8D837F836E8386E584
S113187090E024EAFC012083000086E590E0FC016E
S11318808081881F8827881F882F90E0817099277E
S1131890892B99F38E819F81882797709A838983F6
S11318A089819A81880F892F881F990B91958B8341
S11318B08B81806A8C8383E290E02C81FC012083FD
S11318C086E590E024E8FC012083000086E590E0B2
S11318D0FC018081881F8827881F882F90E08170F1
S11318E09927892B99F383E290E02E81FC012083D0
S11318F086E590E024E8FC012083000086E590E082
S1131900FC018081881F8827881F882F90E08170C0
S11319109927892B99F383E290E02D81FC012083A0
S113192086E590E024E8FC012083000086E590E051
S1131930FC018081881F8827881F882F90E0817090
S11319409927892B99F386E590E024E9FC0120830B
S1131950000027960FB6F894DEBF0FBECDBFDF910F
S1131960CF910895CF93DF93CDB7DEB727970FB606
S1131970F894DEBF0FBECDBF9F838E8386E590E0D3
S113198024EAFC012083000086E590E0FC018081CC
S1131990881F8827881F882F90E081709927892BBA
S11319A099F38E819F81882797709A83898389818F
S11319B09A81880F892F881F990B91958B838B812E
S11319C0806A8C8383E290E02C81FC01208386E58D
S11319D090E024E8FC012083000086E590E0FC010F
S11319E08081881F8827881F882F90E0817099271D
S11319F0892B99F383E290E02E81FC01208386E514
S1131A0090E024E8FC012083000086E590E0FC01DE
S1131A108081881F8827881F882F90E081709927EC
S1131A20892B99F386E590E024EAFC0120830000E9
S1131A3086E590E0FC018081881F8827881F882F15
S1131A4090E081709927892B99F38E819F81882753
S1131A5097709A83898389819A81880F892F881F37
S1131A60990B91958B838B81816A8C8383E290E0BF
S1131A702C81FC01208386E590E024E8FC0120838E
S1131A80000086E590E0FC018081881F8827881F7C
S1131A90882F90E081709927892B99F386E590E04F
S1131AA024E8FC012083000086E590E0FC018081AD
S1131AB0881F8827881F882F90E081709927892B99
S1131AC099F383E290E0FC0180818D8386E590E0C8
S1131AD024E9FC0120838D8127960FB6F894DEBF9C
S1131AE00FBECDBFDF91CF910895CF93DF93CDB7D4
S1131AF0DEB7E8970FB6F894DEBF0FBECDBF61E046
S1131B0082E10E94B61261E083E10E94B61261E0B4
S1131B1084E10E94B61261E085E10E94B61261E0A0
S1131B2086E10E94B61261E087E10E94B61261E08C
S1131B308EE10E94B61282E00E94DC1080E090E008
S1131B40A8E4B2E489839A83AB83BC8320E030E0C9
S1131B504AE755E469817A818B819C810E94A21CA9
S1131B60DC01CB018FA798ABA9ABBAAB20E030E086
S1131B7040E85FE36FA578A989A99AA90E94451B4B
S1131B8088232CF481E090E09CAB8BAB3FC020E039
S1131B903FEF4FE757E46FA578A989A99AA90E9456
S1131BA09D1C18164CF520E030E040E251E46981B8
S1131BB07A818B819C810E94A21CDC01CB01BC0137
S1131BC0CD010E94BC1BDC01CB019CAB8BAB0FC0D5
S1131BD080E991E09EAB8DAB8DA99EA90197F1F7A9
S1131BE09EAB8DAB8BA99CA901979CAB8BAB8BA9AE
S1131BF09CA9892B69F714C06FA578A989A99AA90A
S1131C000E94BC1BDC01CB019CAB8BAB8BA99CA9B8
S1131C1098AF8FAB8FA998AD0197F1F798AF8FABC1
S1131C2088E20E94DC1080E090E0A0E8BFE38D83AE
S1131C309E83AF83B88720E030E04AE755E46D81A6
S1131C407E818F8198850E94A21CDC01CB018DA32B
S1131C509EA3AFA3B8A720E030E040E85FE36DA106
S1131C607EA18FA198A50E94451B88232CF481E0B6
S1131C7090E09AA789A73FC020E03FEF4FE757E4E1
S1131C806DA17EA18FA198A50E949D1C18164CF5EC
S1131C9020E030E040E251E46D817E818F819885BF
S1131CA00E94A21CDC01CB01BC01CD010E94BC1B23
S1131CB0DC01CB019AA789A70FC080E991E09CA71A
S1131CC08BA78BA59CA50197F1F79CA78BA789A54A
S1131CD09AA501979AA789A789A59AA5892B69F737
S1131CE014C06DA17EA18FA198A50E94BC1BDC012C
S1131CF0CB019AA789A789A59AA59EA78DA78DA58B
S1131D009EA50197F1F79EA78DA78EE00E94DC1097
S1131D1080E090E0A0E8BFE389879A87AB87BC871F
S1131D2020E030E04AE755E469857A858B859C8517
S1131D300E94A21CDC01CB018B8F9C8FAD8FBE8FC8
S1131D4020E030E040E85FE36B8D7C8D8D8D9E8DCF
S1131D500E94451B88232CF481E090E098A38F8F88
S1131D603FC020E03FEF4FE757E46B8D7C8D8D8DB6
S1131D709E8D0E949D1C18164CF520E030E040E238
S1131D8051E469857A858B859C850E94A21CDC01BF
S1131D90CB01BC01CD010E94BC1BDC01CB0198A38B
S1131DA08F8F0FC080E991E09AA389A389A19AA19A
S1131DB00197F1F79AA389A38F8D98A1019798A30E
S1131DC08F8F8F8D98A1892B69F714C06B8D7C8DB3
S1131DD08D8D9E8D0E94BC1BDC01CB0198A38F8F3F
S1131DE08F8D98A19CA38BA38BA19CA10197F1F744
S1131DF09CA38BA381E00E94DC1080E090E0A0EA29
S1131E00B0E48D879E87AF87B88B20E030E04AE747
S1131E1055E46D857E858F8598890E94A21CDC011E
S1131E20CB01898B9A8BAB8BBC8B20E030E040E8F4
S1131E305FE369897A898B899C890E94451B882381
S1131E402CF481E090E09E8B8D8B3FC020E03FEF2F
S1131E504FE757E469897A898B899C890E949D1C84
S1131E6018164CF520E030E040E251E46D857E85A3
S1131E708F8598890E94A21CDC01CB01BC01CD0195
S1131E800E94BC1BDC01CB019E8B8D8B0FC080E9B3
S1131E9091E0988F8F8B8F89988D0197F1F7988FA8
S1131EA08F8B8D899E8901979E8B8D8B8D899E89C1
S1131EB0892B69F714C069897A898B899C890E9466
S1131EC0BC1BDC01CB019E8B8D8B8D899E899A8FE7
S1131ED0898F898D9A8D0197F1F79A8F898F86E082
S1131EE00E94DC100000E8960FB6F894DEBF0FBE27
S1131EF0CDBFDF91CF910895CF93DF93CDB7DEB7F8
S1131F006D970FB6F894DEBF0FBECDBF8D8F8D8D4C
S1131F1082958F708170682F82E10E94C1118D8D2E
S1131F208295869587708170682F83E10E94C11124
S1131F308D8D82958695869583708170682F84E156
S1131F400E94C1118D8D881F8827881F682F85E105
S1131F500E94C11161E08EE10E94C11180E090E015
S1131F60A0E8BFE389839A83AB83BC8320E030E09D
S1131F704AE755E469817A818B819C810E94A21C85
S1131F80DC01CB018B8B9C8BAD8BBE8B20E030E0D6
S1131F9040E85FE36B897C898D899E890E94451B9B
S1131FA088232CF481E090E0988F8F8B3FC020E051
S1131FB03FEF4FE757E46B897C898D899E890E94A6
S1131FC09D1C18164CF520E030E040E251E4698194
S1131FD07A818B819C810E94A21CDC01CB01BC0113
S1131FE0CD010E94BC1BDC01CB01988F8F8B0FC0ED
S1131FF080E991E09A8F898F898D9A8D0197F1F705
S11320009A8F898F8F89988D0197988F8F8B8F895D
S1132010988D892B69F714C06B897C898D899E8979
S11320200E94BC1BDC01CB01988F8F8B8F89988D0C
S11320309C8F8B8F8B8D9C8D0197F1F79C8F8B8F51
S113204060E08EE10E94C1118D8D8170682F82E164
S11320500E94C1118D8D86958170682F83E10E9445
S1132060C1118D8D869586958170682F84E10E94BB
S1132070C1118D8D8695869586958170682F85E131
S11320800E94C11161E08EE10E94C11180E090E0E4
S1132090A0E8BFE38D839E83AF83B88720E030E060
S11320A04AE755E46D817E818F8198850E94A21C48
S11320B0DC01CB0189879A87AB87BC8720E030E0BD
S11320C040E85FE369857A858B859C850E94451B82
S11320D088232CF481E090E09E878D873FC020E028
S11320E03FEF4FE757E469857A858B859C850E948D
S11320F09D1C18164CF520E030E040E251E46D815F
S11321007E818F8198850E94A21CDC01CB01BC01D9
S1132110CD010E94BC1BDC01CB019E878D870FC0C3
S113212080E991E0988B8F878F8598890197F1F7E3
S1132130988B8F878D859E8501979E878D878D854A
S11321409E85892B69F714C069857A858B859C8562
S11321500E94BC1BDC01CB019E878D878D859E85EB
S11321609A8B898B89899A890197F1F79A8B898B44
S113217060E08EE10E94C11100006D960FB6F894E4
S1132180DEBF0FBECDBFDF91CF910895CF93DF9314
S11321901F92CDB7DEB7898360E087E10E94C11149
S11321A061E086E10E94C11189810E947C0F0000D8
S11321B00F90DF91CF910895CF93DF931F92CDB706
S11321C0DEB7898360E087E10E94C11160E086E1A7
S11321D00E94C11189810E947C0F00000F90DF9141
S11321E0CF910895CF93DF9300D01F92CDB7DEB780
S11321F09B838A8319820EC08981882F90E02A816B
S11322003B81820F931FFC0180810E94C61089814B
S11322108F5F89838981882F90E02A813B81820F97
S1132220931FFC018081882339F700000F900F90E1
S11322300F90DF91CF910895CF93DF93CDB7DEB7A1
S11322402E970FB6F894DEBF0FBECDBF81E00E947B
S1132250DC1080E090E0A0E8BFE389839A83AB833D
S1132260BC8320E030E04AE755E469817A818B81C0
S11322709C810E94A21CDC01CB018D839E83AF83D1
S1132280B88720E030E040E85FE36D817E818F8194
S113229098850E94451B88232CF481E090E09A875E
S11322A089873FC020E03FEF4FE757E46D817E818F
S11322B08F8198850E949D1C18164CF520E030E013
S11322C040E251E469817A818B819C810E94A21C45
S11322D0DC01CB01BC01CD010E94BC1BDC01CB01A4
S11322E09A8789870FC080E991E09C878B878B85CB
S11322F09C850197F1F79C878B8789859A8501973F
S11323009A87898789859A85892B69F714C06D8195
S11323107E818F8198850E94BC1BDC01CB019A874A
S1132320898789859A859E878D878D859E85019766
S1132330F1F79E878D8700002E960FB6F894DEBFC6
S11323400FBECDBFDF91CF910895CF93DF9300D01F
S1132350CDB7DEB789836A838A81813029F4898184
S113236080580E94DC1007C08A81823021F4898160
S113237080540E94DC1000000F900F90DF91CF91E9
S11323800895CF93DF9300D0CDB7DEB789836A83F6
S11323908981883090F58A818130A9F48BE390E0BB
S11323A02BE330E0F9012081622F2981422F50E094
S11323B021E030E002C0220F331F4A95E2F7262BBA
S11323C0FC012083CDC08A81882309F0C9C08BE336
S11323D090E02BE330E0F9012081622F2981422F24
S11323E050E021E030E002C0220F331F4A95E2F7AB
S11323F020952623FC012083B3C089818830C0F155
S113240089818031A8F58981885089838A818130C6
S1132410A9F488E390E028E330E0F9012081622FF9
S11324202981422F50E021E030E002C0220F331F07
S11324304A95E2F7262BFC0120838FC08A818823EA
S113244009F08BC088E390E028E330E0F9012081B3
S1132450622F2981422F50E021E030E002C0220F98
S1132460331F4A95E2F720952623FC01208375C08B
S113247089818031C0F189818931A8F589818051B0
S113248089838A818130A9F485E390E025E330E0F3
S1132490F9012081622F2981422F50E021E030E0B0
S11324A002C0220F331F4A95E2F7262BFC0120833A
S11324B056C08A81882309F052C085E390E025E361
S11324C030E0F9012081622F2981422F50E021E080
S11324D030E002C0220F331F4A95E2F720952623ED
S11324E0FC0120833CC089818831D0F1898180320C
S11324F0B8F58981885189838A818130A9F482E37E
S113250090E022E330E0F9012081622F2981422FFB
S113251050E021E030E002C0220F331F4A95E2F779
S1132520262BFC0120831CC08A818823C9F482E302
S113253090E022E330E0F9012081622F2981422FCB
S113254050E021E030E002C0220F331F4A95E2F749
S113255020952623FC01208303C0000001C0000055
S113256000000F900F90DF91CF910895CF93DF93E8
S113257000D0CDB7DEB789836A838981883090F52E
S11325808A818130A9F48AE390E02AE330E0F901FA
S11325902081622F2981422F50E021E030E002C0E7
S11325A0220F331F4A95E2F7262BFC012083CDC06E
S11325B08A81882309F0C9C08AE390E02AE330E0E5
S11325C0F9012081622F2981422F50E021E030E07F
S11325D002C0220F331F4A95E2F720952623FC01FF
S11325E02083B3C089818830C0F189818031A8F506
S11325F08981885089838A818130A9F487E390E0B6
S113260027E330E0F9012081622F2981422F50E035
S113261021E030E002C0220F331F4A95E2F7262B57
S1132620FC0120838FC08A81882309F08BC087E353
S113263090E027E330E0F9012081622F2981422FC5
S113264050E021E030E002C0220F331F4A95E2F748
S113265020952623FC01208375C089818031C0F137
S113266089818831A8F58981805189838A81813063
S1132670A9F484E390E024E330E0F9012081622F9F
S11326802981422F50E021E030E002C0220F331FA5
S11326904A95E2F7262BFC01208356C08A818823C1
S11326A009F052C084E390E024E330E0F901208192
S11326B0622F2981422F50E021E030E002C0220F36
S11326C0331F4A95E2F720952623FC0120833CC062
S11326D089818831D0F189818032B8F58981885126
S11326E089838A818130A9F481E390E021E330E099
S11326F0F9012081622F2981422F50E021E030E04E
S113270002C0220F331F4A95E2F7262BFC012083D7
S11327101CC08A818823C9F481E390E021E330E07E
S1132720F9012081622F2981422F50E021E030E01D
S113273002C0220F331F4A95E2F720952623FC019D
S1132740208303C0000001C0000000000F900F9020
S1132750DF91CF910895CF93DF931F92CDB7DEB76A
S113276089838981882399F485E590E025E530E023
S1132770F90120812E7FFC01208385E590E025E589
S113278030E0F90120812D7FFC01208341C0898143
S1132790813099F485E590E025E530E0F901208168
S11327A02160FC01208385E590E025E530E0F90116
S11327B020812D7FFC0120832BC08981823099F4F4
S11327C085E590E025E530E0F90120812E7FFC01CC
S11327D0208385E590E025E530E0F9012081226041
S11327E0FC01208315C08981833091F485E590E054
S11327F025E530E0F90120812160FC01208385E595
S113280090E025E530E0F90120812260FC0120837D
S11328108BE590E02BE530E0F90120812064FC0198
S1132820208300000F90DF91CF9108951F920F92A3
S113283000905F000F9211242F933F934F935F9367
S11328406F937F938F939F93AF93BF93EF93FF9374
S1132850CF93DF93CDB7DEB7C155D109DEBFCDBF6E
S113286061E087E00E94B61261E086E00E94B61241
S113287061E085E00E94B61284E3EAEAF3E0DE0157
S11328805E9601900D928A95E1F7CE014E960E94D4
S11328908B1A0E94B51A898388EA93E00E948B1AE6
S11328A089818B3609F083C061E086E00E94C11102
S11328B061E085E00E94C11180E090E0A8ECB2E400
S11328C08E839F83A887B98720E030E04AE755E4E8
S11328D06E817F81888599850E94A21CDC01CB01D1
S11328E08A879B87AC87BD8720E030E040E85FE3C0
S11328F06A857B858C859D850E94451B88232CF4E5
S113290081E090E09F878E873FC020E03FEF4FE754
S113291057E46A857B858C859D850E949D1C1816CD
S11329204CF520E030E040E251E46E817F818885FF
S113293099850E94A21CDC01CB01BC01CD010E943F
S1132940BC1BDC01CB019F878E870FC080E991E01F
S1132950998B888B888999890197F1F7998B888B52
S11329608E859F8501979F878E878E859F85892B6E
S113297069F714C06A857B858C859D850E94BC1B84
S1132980DC01CB019F878E878E859F859B8B8A8BED
S11329908A899B890197F1F79B8B8A8B60E086E09B
S11329A00E94C11160E085E00E94C11182C061E013
S11329B087E00E94C11161E085E00E94C11180E0BE
S11329C090E0A8ECB2E48A839B83AC83BD8320E0CF
S11329D030E04AE755E46A817B818C819D810E94C5
S11329E0A21CDC01CB018C8B9D8BAE8BBF8B20E0BA
S11329F030E040E85FE36C897D898E899F890E947D
S1132A00451B88232CF481E090E0998F888F3FC088
S1132A1020E03FEF4FE757E46C897D898E899F89D9
S1132A200E949D1C18164CF520E030E040E251E471
S1132A306A817B818C819D810E94A21CDC01CB0177
S1132A40BC01CD010E94BC1BDC01CB01998F888F96
S1132A500FC080E991E09B8F8A8F8A8D9B8D0197AF
S1132A60F1F79B8F8A8F888D998D0197998F888F25
S1132A70888D998D892B69F714C06C897D898E891D
S1132A809F890E94BC1BDC01CB01998F888F888DA4
S1132A90998D9D8F8C8F8C8D9D8D0197F1F79D8FD6
S1132AA08C8F60E087E00E94C11160E085E00E94A5
S1132AB0C1110000CF5ADF4F0FB6F894DEBF0FBE2E
S1132AC0CDBFDF91CF91FF91EF91BF91AF919F91D6
S1132AD08F917F916F915F914F913F912F910F90C3
S1132AE000925F000F901F9018951F920F92009014
S1132AF05F000F9211242F933F934F935F936F9333
S1132B007F938F939F93AF93BF93EF93FF93CF9351
S1132B10DF93CDB7DEB780912B0490912C04FC0198
S1132B2009950000DF91CF91FF91EF91BF91AF9193
S1132B309F918F917F916F915F914F913F912F91D1
S1132B400F9000925F000F901F9018951F920F92A4
S1132B5000905F000F9211242F933F934F935F9344
S1132B606F937F938F939F93AF93BF93EF93FF9351
S1132B70CF93DF93CDB7DEB78091290490912A04D7
S1132B80FC0109950000DF91CF91FF91EF91BF9176
S1132B90AF919F918F917F916F915F914F913F91F1
S1132BA02F910F9000925F000F901F901895CF9374
S1132BB0DF93CDB7DEB78FE590E02FE530E0F90184
S1132BC020812068FC0120830000DF91CF910895CB
S1132BD0CF93DF931F92CDB7DEB78983898181308C
S1132BE041F08981882329F482E290E020EAFC0103
S1132BF0208386E590E026E530E0F9012081246019
S1132C00FC01208380E290E028E4FC0120830000A2
S1132C100F90DF91CF910895CF93DF93CDB7DEB7B7
S1132C208DE290E02DE230E0F90120812F7EFC015D
S1132C30208361E08DE00E94B61261E08FE00E9483
S1132C40B61260E08EE00E94B61261E08CE00E9451
S1132C50B6128DE290E02DE230E0F9012081206887
S1132C60FC0120838DE290E02DE230E0F901208127
S1132C702064FC0120830000DF91CF910895CF935D
S1132C80DF93CDB7DEB700008EE290E0FC018081D7
S1132C90881F8827881F882F90E081709927892BA7
S1132CA099F38FE290E0FC018081DF91CF91089548
S1132CB0CF93DF931F92CDB7DEB78983898187369F
S1132CC069F461E080E00E94C11162E080E00E944A
S1132CD0A5118EED93E00E94F21001C1898188361E
S1132CE069F461E081E00E94C11162E082E00E9427
S1132CF0A51181EE93E00E94F210F1C0898189361A
S1132D0069F461E082E00E94C11162E084E00E9403
S1132D10A51184EE93E00E94F210E1C089818A3605
S1132D2069F461E083E00E94C11162E086E00E94E0
S1132D30A51187EE93E00E94F210D1C089818B36F1
S1132D4069F461E084E00E94C11162E088E00E94BD
S1132D50A5118AEE93E00E94F210C1C089818C36DD
S1132D6069F460E080E00E94C11162E080E00E94AA
S1132D70A5118DEE93E00E94F210B1C089818D36C9
S1132D8069F460E081E00E94C11162E082E00E9487
S1132D90A5118DEE93E00E94F210A1C089818E36B8
S1132DA069F460E082E00E94C11162E084E00E9464
S1132DB0A5118DEE93E00E94F21091C089818F36A7
S1132DC069F460E083E00E94C11162E086E00E9441
S1132DD0A5118DEE93E00E94F21081C089818037A5
S1132DE069F460E084E00E94C11162E088E00E941E
S1132DF0A5118DEE93E00E94F21071C08981813794
S1132E0049F461E080E00E94A51180EF93E00E9404
S1132E10F21065C08981823749F461E083E00E9441
S1132E20A51187EF93E00E94F21059C08981813681
S1132E3061F480E00E94FE0B62E08AE00E94A5112A
S1132E408BEF93E00E94F2104AC08981823661F4CC
S1132E5081E00E94FE0B62E08AE00E94A51182E0FC
S1132E6094E00E94F2103BC08981833661F482E0D1
S1132E700E94FE0B62E08AE00E94A51189E094E0C2
S1132E800E94F2102CC08981843661F483E00E9490
S1132E90FE0B62E08AE00E94A51180E194E00E94AA
S1132EA0F2101DC08981853661F484E00E94FE0B16
S1132EB062E08AE00E94A51187E194E00E94F2108A
S1132EC00EC08981863659F480E00E94FE0B62E0D0
S1132ED08AE00E94A5118EE194E00E94F2100000A5
S1132EE00F90DF91CF9108951F920F9200905F0091
S1132EF00F9211242F933F934F935F936F937F937C
S1132F008F939F93AF93BF93EF93FF93CF93DF93ED
S1132F101F92CDB7DEB70E943F16898389810E9434
S1132F20581600000F90DF91CF91FF91EF91BF9160
S1132F30AF919F918F917F916F915F914F913F914D
S1132F402F910F9000925F000F901F901895CF93D0
S1132F50DF93CDB7DEB783E590E023E530E0F901F8
S1132F6020812F77FC01208383E590E023E530E086
S1132F70F90120812064FC01208383E590E023E5AE
S1132F8030E0F90120812860FC01208383E590E092
S1132F9023E530E0F90120812F7EFC01208383E5C5
S1132FA090E023E530E0F90120812062FC012083D8
S1132FB00000DF91CF910895CF93DF931F92CDB797
S1132FC0DEB7898389818823E1F483E590E023E5F2
S1132FD030E0F90120812160FC01208383E590E049
S1132FE023E530E0F90120812D7FFC01208383E576
S1132FF090E023E530E0F90120812B7FFC01208360
S11330007BC089818130E1F483E590E023E530E001
S1133010F90120812E7FFC01208383E590E023E5E4
S113302030E0F90120812260FC01208383E590E0F7
S113303023E530E0F90120812B7FFC0120835CC073
S113304089818230E1F483E590E023E530E0F90101
S113305020812160FC01208383E590E023E530E0BA
S1133060F90120812260FC01208383E590E023E5BF
S113307030E0F90120812B7FFC0120833DC0898150
S11330808330E1F483E590E023E530E0F901208129
S11330902E7FFC01208383E590E023E530E0F901F5
S11330A020812D7FFC01208383E590E023E530E03F
S11330B0F90120812460FC0120831EC089818430B1
S11330C0D9F483E590E023E530E0F9012081216023
S11330D0FC01208383E590E023E530E0F9012081C1
S11330E02D7FFC01208383E590E023E530E0F901A6
S11330F020812460FC01208300000F90DF91CF9198
S11331000895CF93DF93CDB7DEB783E590E023E551
S113311030E0F90120812E7FFC01208383E590E0DB
S113312023E530E0F90120812D7FFC01208383E534
S113313090E023E530E0F90120812B7FFC0120831E
S11331400000DF91CF9108951F920F9200905F00CD
S11331500F9211242F933F934F935F936F937F9319
S11331608F939F93AF93BF93EF93FF93CF93DF938B
S1133170CDB7DEB780912F0490913004FC010995FE
S11331800000DF91CF91FF91EF91BF91AF919F919B
S11331908F917F916F915F914F913F912F910F90FC
S11331A000925F000F901F9018951F920F9200904D
S11331B05F000F9211242F933F934F935F936F936C
S11331C07F938F939F93AF93BF93EF93FF93CF938B
S11331D0DF93CDB7DEB780912D0490912E04FC01CE
S11331E009950000DF91CF91FF91EF91BF91AF91CD
S11331F09F918F917F916F915F914F913F912F910B
S11332000F9000925F000F901F901895CF93DF935B
S11332101F92CDB7DEB789832CE530E08981882FF2
S113322090E0982F882744E650E0BA010E940F1DD1
S1133230CB018150F901808300000F90DF91CF9181
S11332400895CF93DF931F92CDB7DEB78983898129
S1133250882321F480E00E94DC1706C08981813034
S113326019F481E00E94DC1700000F90DF91CF91E8
S11332700895CF93DF93CDB7DEB78FE490E02FE4CA
S113328030E0F90120812460FC0120838FE490E088
S11332902FE430E0F90120812E7FFC0120838FE4AC
S11332A090E02FE430E0F90120812260FC012083CA
S11332B08EE490E02EE430E0F90120812860FC01E6
S11332C020838EE490E02EE430E0F9012081206137
S11332D0FC0120838FE490E02FE430E0F9012081A9
S11332E02F7BFC0120838FE490E02FE430E0F90190
S11332F020812068FC0120830000DF91CF91089594
S11333000F931F93CF93DF9300D000D0CDB7DEB7D8
S113331069837A838B839C830AE410E086E490E0DB
S1133320FC0180819181CC01A0E0B0E0BC01CD0121
S11333300E94EB1BDC01CB0129813A814B815C812A
S1133340BC01CD010E94A21CDC01CB0120E030E0D5
S113335048EC52E4BC01CD010E944A1BDC01CB01C4
S113336020E030E040E85FE3BC01CD010E94D81AC0
S1133370DC01CB01BC01CD010E94BC1BDC01CB01F3
S1133380F8019183808300000F900F900F900F90AD
S1133390DF91CF911F910F9108950F931F93CF93B6
S11333A0DF9300D0CDB7DEB79A83898306E410E0BB
S11333B089819A81CC01A0E0B0E0BC01CD010E94DA
S11333C0EB1BDC01CB0120E030E040E852E4BC011F
S11333D0CD010E94A21CDC01CB019C01AD0160E087
S11333E074E284E79BE40E944A1BDC01CB0120E0E9
S11333F030E040E85FE3BC01CD010E94D81ADC0153
S1133400CB01BC01CD010E94BC1BDC01CB01F80146
S1133410918380838EE490E02EE430E0F9012081F2
S11334202160FC0120838EE490E02EE430E0F90179
S113343020812260FC0120838EE490E02EE430E0C1
S1133440F90120812B7FFC01208300000F900F9055
S1133450DF91CF911F910F910895CF93DF931F9226
S1133460CDB7DEB78AE290E02AE230E0F9012081AC
S11334702061FC0120838AE290E02AE230E0F90135
S113348020812860FC01208380E889838AE290E01F
S11334902AE230E0F90120812460FC012083898143
S11334A0846089838981846089838981877F898312
S11334B089818F7E898389818F7D898380E490E0EF
S11334C02981FC01208389E290E027E6FC01208326
S11334D000000F90DF91CF910895CF93DF931F9257
S11334E0CDB7DEB7898300008BE290E0FC018081D8
S11334F0829586958770882F90E081709927892B13
S113350099F38CE290E02981FC01208300000F9064
S1133510DF91CF910895CF93DF9300D01F92CDB761
S1133520DEB79B838A8319820EC08981882F90E03D
S11335302A813B81820F931FFC0180810E946D1AB6
S113354089818F5F89838981882F90E02A813B81DB
S1133550820F931FFC018081882339F700000F90AC
S11335600F900F90DF91CF910895CF93DF9300D008
S1133570CDB7DEB71A82198205C089819A81019676
S11335809A8389838BE290E0FC018081881F8827DD
S1133590881F882F90E081709927892B71F38CE222
S11335A090E0FC0180810F900F90DF91CF910895FE
S11335B05058BB27AA270E94F01A0C94631C0E943F
S11335C0551C38F00E945C1C20F039F49F3F19F41C
S11335D026F40C94521C0EF4E095E7FB0C944C1C5E
S11335E0E92F0E94741C58F3BA1762077307840703
S11335F0950720F079F4A6F50C94961C0EF4E0954A
S11336000B2EBA2FA02D0B01B90190010C01CA0198
S1133610A0011124FF27591B99F0593F50F4503E43
S113362068F11A16F040A22F232F342F4427585F35
S1133630F3CF469537952795A795F0405395C9F74D
S11336407EF41F16BA0B620B730B840BBAF0915005
S1133650A1F0FF0FBB1F661F771F881FC2F70EC0A4
S1133660BA0F621F731F841F48F487957795679577
S1133670B795F7959E3F08F0B0CF9395880F08F063
S11336809927EE0F9795879508950E94281C08F4B2
S113369081E008950E945E1B0C94631C0E945C1CD4
S11336A058F00E94551C40F029F45F3F29F00C9417
S11336B04C1C51110C94971C0C94521C0E94741CA9
S11336C068F39923B1F3552391F3951B550BBB274D
S11336D0AA2762177307840738F09F5F5F4F220F92
S11336E0331F441FAA1FA9F335D00E2E3AF0E0E889
S11336F032D091505040E695001CCAF72BD0FE2FD3
S113370029D0660F771F881FBB1F26173707480766
S1133710AB07B0E809F0BB0B802DBF01FF2793581E
S11337205F4F3AF09E3F510578F00C944C1C0C947A
S1133730971C5F3FE4F3983ED4F38695779567959D
S1133740B795F7959F5FC9F7880F911D9695879553
S113375097F90895E1E0660F771F881FBB1F621772
S113376073078407BA0720F0621B730B840BBA0B30
S1133770EE1F88F7E09508950E947C1C88F09F57FF
S113378098F0B92F9927B751B0F0E1F0660F771F81
S1133790881F991F1AF0BA95C9F714C0B13091F077
S11337A00E94961CB1E008950C94961C672F782F04
S11337B08827B85F39F0B93FCCF38695779567953C
S11337C0B395D9F73EF490958095709561957F4FA8
S11337D08F4F9F4F0895E89409C097FB3EF490954E
S11337E08095709561957F4F8F4F9F4F9923A9F0D6
S11337F0F92F96E9BB279395F69587957795679565
S1133800B795F111F8CFFAF4BB0F11F460FF1BC0A8
S11338106F5F7F4F8F4F9F4F16C0882311F096E93B
S113382011C0772321F09EE8872F762F05C06623E9
S113383071F096E8862F70E060E02AF09A95660FA2
S1133840771F881FDAF7880F9695879597F908955B
S1133850990F0008550FAA0BE0E8FEEF161617069D
S1133860E807F907C0F012161306E407F50798F005
S1133870621B730B840B950B39F40A2661F0232B1E
S1133880242B252B21F408950A2609F4A140A6959A
S11338908FEF811D811D089597F99F6780E870E07F
S11338A060E008959FEF80EC089500240A941616B2
S11338B0170618060906089500240A94121613061A
S11338C0140605060895092E0394000C11F48823A8
S11338D052F0BB0F40F4BF2B11F460FF04C06F5FC4
S11338E07F4F8F4F9F4F089557FD9058440F551F9A
S11338F059F05F3F71F04795880F97FB991F61F06E
S11339009F3F79F087950895121613061406551FE4
S1133910F2CF4695F1DF08C0161617061806991F50
S1133920F1CF86957105610508940895E894BB2745
S113393066277727CB0197F908950E94281C08F47D
S11339408FEF08950E94B51C0C94631C0E94551CB3
S113395038F00E945C1C20F0952311F00C944C1C50
S11339600C94521C11240C94971C0E94741C70F328
S1133970959FC1F3950F50E0551F629FF001729F10
S1133980BB27F00DB11D639FAA27F00DB11DAA1F1F
S1133990649F6627B00DA11D661F829F2227B00D6C
S11339A0A11D621F739FB00DA11D621F839FA00DF7
S11339B0611D221F749F3327A00D611D231F849F47
S11339C0600D211D822F762F6A2F11249F5750409E
S11339D09AF0F1F088234AF0EE0FFF1FBB1F661F19
S11339E0771F881F91505040A9F79E3F510580F0E2
S11339F00C944C1C0C94971C5F3FE4F3983ED4F356
S1133A00869577956795B795F795E7959F5FC1F785
S1133A10FE2B880F911D9695879597F9089597FB2E
S1133A20072E16F4009407D077FD09D00E94231DB9
S1133A3007FC05D03EF4909581959F4F08957095AD
S1133A4061957F4F0895AA1BBB1B51E107C0AA1FB4
S1133A50BB1FA617B70710F0A61BB70B881F991F2B
S1133A605A95A9F780959095BC01CD010895FB0165
S1133A70DC018D91019080190110D9F3990B0895FF
S1073A80F894FFCFE4
S1133A8457656C636F6D6520486F6D652E0D20005E
S1133A94205072657373206120746F206164642004
S1133AA4616E206F6E6C696E6520757365720D208E
S1133AB47072657373206220746F20616464206182
S1133AC46E206F66666C696E6520757365720D2071
S1133AD47072657373206320746F2064656C6574FD
S1133AE465206F6E6C696E6520757365720D205068
S1133AF472657373206420746F2064656C657465E7
S1133B04206F66666C696E6520757365720D20504E
S1133B1472657373206520746F20436F6E74726FC3
S1133B246C20646576696365730D205072657373E4
S1133B34207320746F207369676E206F75740D0091
S1133B4461005573657220616464656420737563F0
S1133B546365737366756C6C79200D004572726FBE
S1133B64720D20006200557365722061646465649B
S1133B74207375636365737366756C6C790D2000CB
S1133B846300557365722064656C657465642073A1
S1133B9475636365737366756C6C79200D00457287
S1133BA4726F72200D0064006500202057726974DE
S1133BB46520746865206E756D626572206F662079
S1133BC4746865206C6564207468656E206F6E206B
S1133BD46F72206F666620746F20636F6E74726FE9
S1133BE46C2069740D202050726573732061206EFB
S1133BF4756D626572206265747765656E20312027
S1133C04616E64203520746F20636F6E74726F6C00
S1133C14207468652064696D6D696E670D20205792
S1133C2472697465206F666620746F207475726E91
S1133C342064696D6D6572206F66660D202057726D
S1133C44697465206F70656E206F7220636C6F7386
S1133C546520746F20636F6E74726F6C2074686572
S1133C6420646F6F720D202050726573732062207C
S1133C74746F20676F206261636B0D006F6666006A
S1133C8420202020202000310044696D204C310084
S1133C94320044696D204C3200330044696D204C79
S1133CA43300340044696D204C3400350044696D9C
S1133CB4204C350031206F6E004C310032206F6E81
S1133CC4004C320033206F6E004C330034206F6E8E
S1133CD4004C340035206F6E004C350031206F6683
S1133CE4660020200032206F66660033206F66660B
S1133CF40034206F66660035206F6666006F706559
S1133D046E00636C6F736500730077726F6E672067
S1133D14696E7075740D200057726F6E6720557349
S1133D2465726E616D65206F722050617373776F75
S1133D3472640D0061646D696E0041646D696E3D69
S1133D44200041646D696E20506173733D20006FDF
S1133D546E6C696E6520757365723D20006F6E6CC0
S1133D64696E65207573657220706173733D2000FC
S1133D746F66666C696E6520757365723D20006FAD
S1133D8466666C696E652075736572207061737301
S1133D943D20007573657220596F752077697368C7
S1133DA420746F2064656C6574653D20000D004FBC
S1133DB450454E2020444F4F520D00436C6F7365A1
S1133DC42020444F4F520D000D000D4120757365A2
S1133DD472206E65656420746F2061636365737318
S1133DE42E207072657373206B20746F20616C6C69
S1133DF46F772074686520757365723A20004C31BE
S1133E04004C32004C33004C34004C35002020006C
S1133E144143204F4E20004F4646002020202020BE
S1133E24200044696D204C310044696D204C3200FB
S1133E3444696D204C330044696D204C340044695A
S1093E446D204C35000066
S9030000FC
