:100000000C942A000C9440120C9471120C94A212BD
:100010000C9447000C9447000C9447000C94470044
:100020000C9447000C9447000C9464140C94331403
:100030000C9447000C9447000C9447000C94470024
:100040000C9447000C9447000C9447000C94470014
:100050000C94470011241FBECFE5D8E0DEBFCDBF12
:1000600011E0A0E6B0E0E6E4FDE202C005900D92EA
:10007000A43FB107D9F722E0A4EFB1E001C01D927F
:10008000A130B207E1F70E94B4000C94A1160C94C1
:100090000000CF93DF9300D000D000D0CDB7DEB703
:1000A0008091F4019091F50101969093F501809370
:1000B000F4018091F4019091F501843C944009F0A1
:1000C00049C080E00E94A80E9A83898389819A8121
:1000D000CC01A0E0B0E0BC01CD010E947415DC01B0
:1000E000CB0120E93EE34AEF5EE3BC01CD010E9473
:1000F0002B16DC01CB018B839C83AD83BE8320E078
:1001000030E040EF51E46B817C818D819E810E94C3
:100110002616882344F061E081E00E94610F81E7A8
:100120000E94321313C020E030E040EB51E46B81B9
:100130007C818D819E810E94401588233CF460E083
:1001400081E00E94610F82E70E9432131092F50154
:100150001092F401000026960FB6F894DEBF0FBE91
:10016000CDBFDF91CF910895CF93DF93CDB7DEB7A9
:10017000A8970FB6F894DEBF0FBECDBF60E08BE14D
:100180000E94561060E08FE10E94561060E08EE100
:100190000E94561061E082E00E94561061E081E00A
:1001A0000E94561060E080E00E9456100E946A0E85
:1001B0000E9408130E94951481E00E94E4120E949C
:1001C000D31283E00E94C2110E94581389E490E088
:1001D0000E94201483E00E947B130E9432090E9437
:1001E0001E0A89E496E00E942D12198281E08A831A
:1001F0008981833009F48AC10E942805813009F081
:100200007DC1198280E690E00E94F31461E088E0ED
:100210000E94561061E088E00E94610F80E090E04B
:10022000A8E4B2E48F839887A987BA8720E030E0FA
:100230004AE755E46F81788589859A850E942B1657
:10024000DC01CB018B879C87AD87BE8720E030E047
:1002500040E85FE36B857C858D859E850E94401517
:1002600088232CF481E090E0988B8F873FC020E0BA
:100270003FEF4FE757E46B857C858D859E850E9417
:10028000261618164CF520E030E040E251E46F816C
:10029000788589859A850E942B16DC01CB01BC01EB
:1002A000CD010E944515DC01CB01988B8F870FC0D3
:1002B00080E991E09A8B898B89899A890197F1F776
:1002C0009A8B898B8F8598890197988B8F878F85DB
:1002D0009889892B69F714C06B857C858D859E85EF
:1002E0000E944515DC01CB01988B8F878F859889FB
:1002F0009C8B8B8B8B899C890197F1F79C8B8B8BCB
:1003000060E088E00E94610F00008BE10E944B11C9
:100310008823D9F38EE10E944B11882309F4DDC0B4
:100320008BE790E00E94F314D3C084E890E00E9431
:10033000F314CE014F960E9447030E944900CE015C
:100340004F9664E271E00E949816892B21F481E6B1
:100350000E943213BDC0CE014F9668E271E00E9448
:100360009816892B21F482E60E943213B1C0CE0187
:100370004F966AE271E00E949816892B21F483E679
:100380000E943213A5C0CE014F966CE271E00E942C
:100390009816892B21F484E60E94321399C0CE016D
:1003A0004F966EE271E00E949816892B21F485E643
:1003B0000E9432138DC0CE014F9660E371E00E941F
:1003C0009816892B21F486E60E94321381C0CE0153
:1003D0004F9662E371E00E949816892B21F487E61C
:1003E0000E94321375C0CE014F9667E371E00E9400
:1003F0009816892B21F488E60E94321369C0CE0139
:100400004F966CE371E00E949816892B21F489E6DF
:100410000E9432135DC0CE014F9661E471E00E94EC
:100420009816892B21F48AE60E94321351C0CE011E
:100430004F9666E471E00E949816892B21F48BE6B2
:100440000E94321345C0CE014F966BE471E00E94CA
:100450009816892B21F48CE60E94321339C0CE0104
:100460004F9661E571E00E949816892B21F48DE684
:100470000E9432132DC0CE014F9667E571E00E94B5
:100480009816892B21F48EE60E94321321C0CE01EA
:100490004F966DE571E00E949816892B21F48FE646
:1004A0000E94321315C0CE014F9663E671E00E94A0
:1004B0009816892B21F480E70E94321309C0CE01DF
:1004C0004F9669E671E00E949816892B09F41A820A
:1004D0008A81813009F429CF8BCE8FE10E944B11A4
:1004E000882309F485CE8BE691E00E94F3148DE019
:1004F0000E94D5148AE00E94D5147ACE89E791E053
:100500000E94F31489818F5F898372CE61E082E05B
:100510000E94610F80E090E0AAEFB4E48B839C839B
:10052000AD83BE8320E030E04AE755E46B817C81F7
:100530008D819E810E942B16DC01CB018D8B9E8BC1
:10054000AF8BB88F20E030E040E85FE36D897E89B3
:100550008F89988D0E94401588232CF481E090E0CB
:100560009A8F898F3FC020E03FEF4FE757E46D89B6
:100570007E898F89988D0E94261618164CF520E0EA
:1005800030E040E251E46B817C818D819E810E944C
:100590002B16DC01CB01BC01CD010E944515DC010D
:1005A000CB019A8F898F0FC080E991E09C8F8B8F50
:1005B0008B8D9C8D0197F1F79C8F8B8F898D9A8DF8
:1005C00001979A8F898F898D9A8D892B69F714C02D
:1005D0006D897E898F89988D0E944515DC01CB013C
:1005E0009A8F898F898D9A8D9E8F8D8F8D8D9E8DFF
:1005F0000197F1F79E8F8D8F60E082E00E94610F7E
:100600001982F6CDCF93DF9300D000D0CDB7DEB7FF
:100610009C838B8319821A821092F60123C00E9458
:100620006609898389818837E9F089818D33D1F022
:1006300000000E9466098837E1F789810E946F0DEA
:100640008A81882F90E02B813C81820F931F298122
:10065000FC0120838091F6018F5F8093F6018A81EF
:100660008F5F8A8389818D33D1F68091F601882F3F
:1006700090E02B813C81820F931FFC0110820000CF
:100680000F900F900F900F90DF91CF910895CF931F
:10069000DF9300D000D0CDB7DEB79C838B83198267
:1006A0001A821092F60118C00E941D158983898153
:1006B0008D3391F08A81882F90E02B813C81820FCD
:1006C000931F2981FC0120838091F6018F5F809325
:1006D000F6018A818F5F8A8389818D3329F7809122
:1006E000F601882F90E02B813C81820F931FFC0143
:1006F00010828DE00E94D5148AE00E94D51400007B
:100700000F900F900F900F90DF91CF9108951F934E
:10071000CF93DF93CDB7DEB7E8970FB6F894DEBF7F
:100720000FBECDBF198284E991E00E949B0DCE01DE
:1007300085960E9402031A821B828BE08C83BAC0CA
:100740008C81882F90E00E946F088F3F09F4ACC025
:100750001D828C818E83A2C08D81882F90E09E01A6
:100760002B5D3F4F820F931FFC0110818E81882FDC
:1007700090E00E946F08181709F089C08A818F5F86
:100780008A838091F6019A81981709F081C08E8141
:10079000882F90E001960E946F088F3F09F078C083
:1007A0008C818B8380E090E0A6E9B3E48D879E87FF
:1007B000AF87B88B20E030E04AE755E46D857E8551
:1007C0008F8598890E942B16DC01CB01898B9A8B2F
:1007D000AB8BBC8B20E030E040E85FE369897A892D
:1007E0008B899C890E94401588232CF481E090E03D
:1007F0009E8B8D8B3FC020E03FEF4FE757E4698928
:100800007A898B899C890E94261618164CF520E05F
:1008100030E040E251E46D857E858F8598890E94A5
:100820002B16DC01CB01BC01CD010E944515DC017A
:10083000CB019E8B8D8B0FC080E991E0988F8F8BC1
:100840008F89988D0197F1F7988F8F8B8D899E896D
:1008500001979E8B8D8B8D899E89892B69F714C09A
:1008600069897A898B899C890E944515DC01CB01B5
:100870009E8B8D8B8D899E899A8F898F898D9A8D7C
:100880000197F1F79A8F898F81E089830DC01A82D1
:100890008E818F5F8E838D818F5F8D838091F60136
:1008A0009D81981708F458CF8981813041F08C815F
:1008B0008C5E8C838C81843608F442CF01C00000AA
:1008C0008B81882309F4B9C062E080E00E944E0E5B
:1008D0008AE991E00E949B0DCE018F960E9402034F
:1008E0008B81865F8B831A821F828B8188879FC052
:1008F0008F81882F90E09E01215D3F4F820F931FD3
:10090000FC0110818885882F90E00E946F081817DD
:1009100009F086C08A818F5F8A838091F6019A816F
:10092000981709F07EC08885882F90E001960E9474
:100930006F088F3F09F075C080E090E0A6E9B3E44E
:1009400089879A87AB87BC8720E030E04AE755E487
:1009500069857A858B859C850E942B16DC01CB01ED
:100960008B8F9C8FAD8FBE8F20E030E040E85FE33F
:100970006B8D7C8D8D8D9E8D0E94401588232CF46F
:1009800081E090E098A38F8F3FC020E03FEF4FE7DA
:1009900057E46B8D7C8D8D8D9E8D0E9426161816CA
:1009A0004CF520E030E040E251E469857A858B85A2
:1009B0009C850E942B16DC01CB01BC01CD010E945D
:1009C0004515DC01CB0198A38F8F0FC080E991E022
:1009D0009AA389A389A19AA10197F1F79AA389A360
:1009E0008F8D98A1019798A38F8F8F8D98A1892BB8
:1009F00069F714C06B8D7C8D8D8D9E8D0E94451581
:100A0000DC01CB0198A38F8F8F8D98A19CA38BA322
:100A10008BA19CA10197F1F79CA38BA381E00EC051
:100A20001A8288858F5F88878F818F5F8F838091FF
:100A3000F6019F81981708F45BCF80E0E8960FB627
:100A4000F894DEBF0FBECDBFDF91CF911F91089507
:100A50001F93CF93DF93CDB7DEB7AA970FB6F89465
:100A6000DEBF0FBECDBF84E991E00E94F314CE013A
:100A700047960E94470319821A821B8285E68C835F
:100A8000B8C08C81882F90E00E946F088F3F09F4D6
:100A9000AAC01D828C818E83A2C08D81882F90E098
:100AA0009E01295E3F4F820F931FFC0110818E81B2
:100AB000882F90E00E946F08181709F089C089817B
:100AC0008F5F89838091F6019981981709F081C021
:100AD0008E81882F90E001960E946F088F3F09F069
:100AE00078C08C818B8380E090E0A6E9B3E48987AD
:100AF0009A87AB87BC8720E030E04AE755E46985F8
:100B00007A858B859C850E942B16DC01CB018D8715
:100B10009E87AF87B88B20E030E040E85FE36D85CB
:100B20007E858F8598890E94401588232CF481E06A
:100B300090E09A8B898B3FC020E03FEF4FE757E46E
:100B40006D857E858F8598890E94261618164CF52E
:100B500020E030E040E251E469857A858B859C8510
:100B60000E942B16DC01CB01BC01CD010E94451572
:100B7000DC01CB019A8B898B0FC080E991E09C8BC3
:100B80008B8B8B899C890197F1F79C8B8B8B898947
:100B90009A8901979A8B898B89899A89892B69F718
:100BA00014C06D857E858F8598890E944515DC016E
:100BB000CB019A8B898B89899A899E8B8D8B8D89A4
:100BC0009E890197F1F79E8B8D8B81E08A830BC004
:100BD00019828E818F5F8E838D818F5F8D838D8152
:100BE0008A3008F45ACF8A81813041F08C818C5E42
:100BF0008C838C81883C08F444CF01C000008B8139
:100C00008823E1F18AE991E00E94F314CE018196F4
:100C10000E9447038B81865F8B8319821F828B81A1
:100C2000888729C08F81882F90E09E012F5D3F4FDC
:100C3000820F931FFC0110818885882F90E00E940D
:100C40006F08181791F489818F5F89838091F6016D
:100C50009981981751F48885882F90E001960E9419
:100C60006F088F3F11F481E00AC088858F5F888705
:100C70008F818F5F8F838F818A30A0F280E0AA9668
:100C80000FB6F894DEBF0FBECDBFDF91CF911F919D
:100C90000895CF93DF93CDB7DEB7A9970FB6F89439
:100CA000DEBF0FBECDBF61E082E00E94561081E042
:100CB000898381E08A8305C21B828B81833009F49A
:100CC00085C10E948703882309F471C11B820E9499
:100CD000C50D84EA91E00E949B0D80E090E0AAEFB0
:100CE000B3E488879987AA87BB8720E030E04AE78A
:100CF00055E4688579858A859B850E942B16DC01E1
:100D0000CB018C879D87AE87BF8720E030E040E82D
:100D10005FE36C857D858E859F850E9440158823C5
:100D20002CF481E090E0998B888B3FC020E03FEF6E
:100D30004FE757E46C857D858E859F850E9426163A
:100D400018164CF520E030E040E251E468857985E2
:100D50008A859B850E942B16DC01CB01BC01CD014D
:100D60000E944515DC01CB01998B888B0FC080E96F
:100D700091E09B8B8A8B8A899B890197F1F79B8BEA
:100D80008A8B888999890197998B888B8889998919
:100D9000892B69F714C06C857D858E859F850E949F
:100DA0004515DC01CB01998B888B888999899D8BAE
:100DB0008C8B8C899D890197F1F79D8B8C8B0E9480
:100DC000C50DF0C0CE0180960E940203CE01809630
:100DD0006CEA71E00E949816892B31F487E60E9434
:100DE00032130E94C50DDEC0CE01809660EB71E02B
:100DF0000E949816892B31F488E60E9432130E94D3
:100E0000C50DD0C0CE01809664EB71E00E949816AB
:100E1000892B31F489E60E9432130E94C50DC2C0AD
:100E2000CE01809668EB71E00E949816892B31F410
:100E30008AE60E9432130E94C50DB4C0CE0180968E
:100E40006CEB71E00E949816892B31F48BE60E94BE
:100E500032130E94C50DA6C0CE01809660EC71E0F1
:100E60000E949816892B31F48CE60E9432130E945E
:100E7000C50D98C0CE01809664EC71E00E94981672
:100E8000892B31F48DE60E9432130E94C50D8AC071
:100E9000CE01809668EC71E00E949816892B31F49F
:100EA0008EE60E9432130E94C50D7CC0CE01809652
:100EB0006CEC71E00E949816892B31F48FE60E9449
:100EC00032130E94C50D6EC0CE01809660ED71E0B8
:100ED0000E949816892B31F480E70E9432130E94F9
:100EE000C50D60C0CE01809664ED71E00E94981639
:100EF000892B31F481E60E9432130E94C50D52C045
:100F0000CE01809668ED71E00E949816892B31F42D
:100F100082E60E9432130E94C50D44C0CE01809625
:100F20006CED71E00E949816892B31F484E60E94E2
:100F300032130E94C50D36C0CE01809660EE71E07E
:100F40000E949816892B31F485E60E9432130E9484
:100F5000C50D28C0CE01809664EE71E00E949816FF
:100F6000892B31F486E60E9432130E94C50D1AC007
:100F7000CE01809668EE71E00E949816892B31F4BC
:100F800083E60E9432130E94C50D0CC0CE018096EC
:100F90006CEE71E00E949816892B21F419821A8256
:100FA0000E94C50D8A81813009F40CCF8AC00E944D
:100FB0008703882309F085C00E94C50D8EEE91E05D
:100FC0000E949B0D8B818F5F8B837BC061E082E0F1
:100FD0000E94610F80E090E0AAEFB4E48C839D83CF
:100FE000AE83BF8320E030E04AE755E46C817D8129
:100FF0008E819F810E942B16DC01CB018E8B9F8BF3
:10100000A88FB98F20E030E040E85FE36E897F89E8
:10101000888D998D0E94401588232CF481E090E002
:101020009B8F8A8F3FC020E03FEF4FE757E46E89E8
:101030007F89888D998D0E94261618164CF520E020
:1010400030E040E251E46C817D818E819F810E947D
:101050002B16DC01CB01BC01CD010E944515DC0142
:10106000CB019B8F8A8F0FC080E991E09D8F8C8F81
:101070008C8D9D8D0197F1F79D8F8C8F8A8D9B8D27
:1010800001979B8F8A8F8A8D9B8D892B69F714C05E
:101090006E897F89888D998D0E944515DC01CB0171
:1010A0009B8F8A8F8A8D9B8D9F8F8E8F8E8D9F8D2C
:1010B0000197F1F79F8F8E8F60E082E00E94610FB1
:1010C0001B828981813009F4F7CD0000A9960FB603
:1010D000F894DEBF0FBECDBFDF91CF910895CF93BF
:1010E000DF93CDB7DEB727970FB6F894DEBF0FBEFC
:1010F000CDBF9F838E8386E590E024EAFC012083A8
:10110000000086E590E0FC018081881F8827881F09
:10111000882F90E081709927892B99F38E819F8188
:10112000882797709A83898389819A81880F892F6C
:10113000881F990B91958B838B81806A8C8383E2C6
:1011400090E02C81FC01208386E590E024E8FC01FE
:101150002083000086E590E0FC018081881F8827BD
:10116000881F882F90E081709927892B99F383E25B
:1011700090E02E81FC01208386E590E024E8FC01CC
:101180002083000086E590E0FC018081881F88278D
:10119000881F882F90E081709927892B99F386E525
:1011A00090E024EAFC012083000086E590E0FC0149
:1011B0008081881F8827881F882F90E08170992759
:1011C000892B99F38E819F81882797709A838983D1
:1011D00089819A81880F892F881F990B91958B831C
:1011E0008B81816A8C8383E290E02C81FC012083D7
:1011F00086E590E024E8FC012083000086E590E08D
:10120000FC018081881F8827881F882F90E08170CB
:101210009927892B99F386E590E024E8FC01208347
:10122000000086E590E0FC018081881F8827881FE8
:10123000882F90E081709927892B99F383E290E0C1
:10124000FC0180818D8386E590E024E9FC01208308
:101250008D8127960FB6F894DEBF0FBECDBFDF910C
:10126000CF910895CF93DF93CDB7DEB760E082E1F1
:101270000E94561060E083E10E94561060E084E115
:101280000E94561060E085E10E94561082E10E94A3
:10129000B31183E10E94B31184E10E94B31185E18F
:1012A0000E94B31161E086E10E94561061E087E17F
:1012B0000E94561061E08DE10E94561061E083E0CB
:1012C0000E9456100000DF91CF910895CF93DF93D5
:1012D000CDB7DEB760E086E10E94610F61E087E193
:1012E0000E94610F61E08DE10E94610F61E083E087
:1012F0000E94610F82E10E944B11882311F487E361
:101300009AC083E10E944B11882311F484E393C0B7
:1013100084E10E944B11882311F481E38CC085E1A4
:101320000E944B11882311F483E685C061E086E1B9
:101330000E94610F60E087E10E94610F61E08DE132
:101340000E94610F61E083E00E94610F82E10E94D0
:101350004B11882311F488E36EC083E10E944B1186
:10136000882311F485E367C084E10E944B11882330
:1013700011F482E360C085E10E944B11882311F4CF
:1013800080E359C061E086E10E94610F61E087E17E
:101390000E94610F60E08DE10E94610F61E083E0D7
:1013A0000E94610F82E10E944B11882311F489E3AE
:1013B00042C083E10E944B11882311F486E33BC0B5
:1013C00084E10E944B11882311F483E334C085E14A
:1013D0000E944B11882311F48DE32DC061E086E15A
:1013E0000E94610F61E087E10E94610F61E08DE181
:1013F0000E94610F60E083E00E94610F82E10E9421
:101400004B11882311F48FE216C083E10E944B1127
:10141000882311F48AE20FC084E10E944B118823D3
:1014200011F48DE208C085E10E944B11882311F46C
:101430008BE201C088E7DF91CF910895CF93DF93CE
:10144000CDB7DEB7E8970FB6F894DEBF0FBECDBFBD
:1014500061E084E00E94561061E085E00E94561031
:1014600061E086E00E94561061E087E00E9456101D
:1014700061E089E00E94561061E08AE00E94561007
:1014800061E08BE00E94561082E00E94850D80E0B2
:1014900090E0A8E4B2E489839A83AB83BC8320E024
:1014A00030E04AE755E469817A818B819C810E9412
:1014B0002B16DC01CB018FA798ABA9ABBAAB20E010
:1014C00030E040E85FE36FA578A989A99AA90E9456
:1014D000401588232CF481E090E09CAB8BAB3FC09F
:1014E00020E03FEF4FE757E46FA578A989A99AA9B3
:1014F0000E94261618164CF520E030E040E251E438
:1015000069817A818B819C810E942B16DC01CB0141
:10151000BC01CD010E944515DC01CB019CAB8BAB1E
:101520000FC080E991E09EAB8DAB8DA99EA901977C
:10153000F1F79EAB8DAB8BA99CA901979CAB8BABB4
:101540008BA99CA9892B69F714C06FA578A989A9D3
:101550009AA90E944515DC01CB019CAB8BAB8BA9F2
:101560009CA998AF8FAB8FA998AD0197F1F798AF71
:101570008FAB88E20E94850D80E090E0A0E8BFE399
:101580008D839E83AF83B88720E030E04AE755E43F
:101590006D817E818F8198850E942B16DC01CB01A5
:1015A0008DA39EA3AFA3B8A720E030E040E85FE39F
:1015B0006DA17EA18FA198A50E94401588232CF4CF
:1015C00081E090E09AA789A73FC020E03FEF4FE776
:1015D00057E46DA17EA18FA198A50E94261618162A
:1015E0004CF520E030E040E251E46D817E818F8156
:1015F00098850E942B16DC01CB01BC01CD010E9415
:101600004515DC01CB019AA789A70FC080E991E0BD
:101610009CA78BA78BA59CA50197F1F79CA78BA7EF
:1016200089A59AA501979AA789A789A59AA5892B23
:1016300069F714C06DA17EA18FA198A50E944515E0
:10164000DC01CB019AA789A789A59AA59EA78DA79A
:101650008DA59EA50197F1F79EA78DA78EE00E940C
:10166000850D80E090E0A0E8BFE389879A87AB878B
:10167000BC8720E030E04AE755E469857A858B85B0
:101680009C850E942B16DC01CB018B8F9C8FAD8F2C
:10169000BE8F20E030E040E85FE36B8D7C8D8D8D68
:1016A0009E8D0E94401588232CF481E090E098A341
:1016B0008F8F3FC020E03FEF4FE757E46B8D7C8D6D
:1016C0008D8D9E8D0E94261618164CF520E030E078
:1016D00040E251E469857A858B859C850E942B16B2
:1016E000DC01CB01BC01CD010E944515DC01CB0121
:1016F00098A38F8F0FC080E991E09AA389A389A155
:101700009AA10197F1F79AA389A38F8D98A10197C8
:1017100098A38F8F8F8D98A1892B69F714C06B8D3B
:101720007C8D8D8D9E8D0E944515DC01CB0198A38B
:101730008F8F8F8D98A19CA38BA38BA19CA10197C8
:10174000F1F79CA38BA381E00E94850D80E090E0DF
:10175000A0EAB0E48D879E87AF87B88B20E030E0A9
:101760004AE755E46D857E858F8598890E942B1602
:10177000DC01CB01898B9A8BAB8BBC8B20E030E0FA
:1017800040E85FE369897A898B899C890E944015CA
:1017900088232CF481E090E09E8B8D8B3FC020E06D
:1017A0003FEF4FE757E469897A898B899C890E94CA
:1017B000261618164CF520E030E040E251E46D8525
:1017C0007E858F8598890E942B16DC01CB01BC0198
:1017D000CD010E944515DC01CB019E8B8D8B0FC086
:1017E00080E991E0988F8F8B8F89988D0197F1F721
:1017F000988F8F8B8D899E8901979E8B8D8B8D897C
:101800009E89892B69F714C069897A898B899C899B
:101810000E944515DC01CB019E8B8D8B8D899E89A5
:101820009A8F898F898D9A8D0197F1F79A8F898F79
:1018300086E00E94850D0000E8960FB6F894DEBFA2
:101840000FBECDBFDF91CF910895CF93DF93CDB77A
:10185000DEB76D970FB6F894DEBF0FBECDBF8D8F8C
:101860008D8D82958F708170682F84E00E94610F4A
:101870008D8D8295869587708170682F85E00E9496
:10188000610F8D8D82958695869583708170682F06
:1018900086E00E94610F8D8D881F8827881F682F22
:1018A00087E00E94610F61E08BE00E94610F80E0A1
:1018B00090E0A0E8BFE389839A83AB83BC8320E0F8
:1018C00030E04AE755E469817A818B819C810E94EE
:1018D0002B16DC01CB018B8B9C8BAD8BBE8B20E060
:1018E00030E040E85FE36B897C898D899E890E94A6
:1018F000401588232CF481E090E0988F8F8B3FC0B7
:1019000020E03FEF4FE757E46B897C898D899E8902
:101910000E94261618164CF520E030E040E251E413
:1019200069817A818B819C810E942B16DC01CB011D
:10193000BC01CD010E944515DC01CB01988F8F8B36
:101940000FC080E991E09A8F898F898D9A8D0197D8
:10195000F1F79A8F898F8F89988D0197988F8F8B48
:101960008F89988D892B69F714C06B897C898D8943
:101970009E890E944515DC01CB01988F8F8B8F8942
:10198000988D9C8F8B8F8B8D9C8D0197F1F79C8F01
:101990008B8F60E08BE00E94610F8D8D8170682FCE
:1019A00084E00E94610F8D8D86958170682F85E09F
:1019B0000E94610F8D8D869586958170682F86E0D7
:1019C0000E94610F8D8D8695869586958170682F12
:1019D00087E00E94610F61E08BE00E94610F80E070
:1019E00090E0A0E8BFE38D839E83AF83B88720E0BB
:1019F00030E04AE755E46D817E818F8198850E94B1
:101A00002B16DC01CB0189879A87AB87BC8720E046
:101A100030E040E85FE369857A858B859C850E948C
:101A2000401588232CF481E090E09E878D873FC08D
:101A300020E03FEF4FE757E469857A858B859C85E9
:101A40000E94261618164CF520E030E040E251E4E2
:101A50006D817E818F8198850E942B16DC01CB01E0
:101A6000BC01CD010E944515DC01CB019E878D870D
:101A70000FC080E991E0988B8F878F8598890197B7
:101A8000F1F7988B8F878D859E8501979E878D872F
:101A90008D859E85892B69F714C069857A858B852C
:101AA0009C850E944515DC01CB019E878D878D8525
:101AB0009E859A8B898B89899A890197F1F79A8BF0
:101AC000898B60E08BE00E94610F00006D960FB67D
:101AD000F894DEBF0FBECDBFDF91CF910895CF93B5
:101AE000DF931F92CDB7DEB7898360E08AE00E9462
:101AF000610F61E089E00E94610F89810E94250CDD
:101B000000000F90DF91CF910895CF93DF931F9244
:101B1000CDB7DEB7898360E08AE00E94610F60E0A4
:101B200089E00E94610F89810E94250C00000F90BE
:101B3000DF91CF910895CF93DF9300D01F92CDB75F
:101B4000DEB79B838A8319820EC08981882F90E03B
:101B50002A813B81820F931FFC0180810E946F0DBF
:101B600089818F5F89838981882F90E02A813B81D9
:101B7000820F931FFC018081882339F700000F90AA
:101B80000F900F90DF91CF910895CF93DF93CDB752
:101B9000DEB72E970FB6F894DEBF0FBECDBF81E043
:101BA0000E94850D80E090E0A0E8BFE389839A83DE
:101BB000AB83BC8320E030E04AE755E469817A8159
:101BC0008B819C810E942B16DC01CB018D839E832F
:101BD000AF83B88720E030E040E85FE36D817E812D
:101BE0008F8198850E94401588232CF481E090E035
:101BF0009A8789873FC020E03FEF4FE757E46D8128
:101C00007E818F8198850E94261618164CF520E05B
:101C100030E040E251E469817A818B819C810E94AD
:101C20002B16DC01CB01BC01CD010E944515DC0166
:101C3000CB019A8789870FC080E991E09C878B87C9
:101C40008B859C850197F1F79C878B8789859A8581
:101C500001979A87898789859A85892B69F714C0A6
:101C60006D817E818F8198850E944515DC01CB01B5
:101C70009A87898789859A859E878D878D859E8598
:101C80000197F1F79E878D8700002E960FB6F89486
:101C9000DEBF0FBECDBFDF91CF910895CF93DF930D
:101CA00000D0CDB7DEB789836A838A81813029F479
:101CB000898180580E94850D07C08A81823021F475
:101CC000898180540E94850D00000F900F90DF9154
:101CD000CF910895CF93DF93CDB7DEB787E290E041
:101CE00027E230E0F90120812064FC01208387E2B3
:101CF00090E027E230E0F90120812F77FC0120837A
:101D000086E290E026E230E0F90120812160FC01CA
:101D1000208386E290E026E230E0F9012081226013
:101D2000FC01208386E290E026E230E0F901208188
:101D30002460FC01208386E290E026E230E0F90195
:101D400020812068FC0120830000DF91CF9108955D
:101D5000CF93DF931F92CDB7DEB789838981882324
:101D600071F587E290E027E230E0F90120812E7FD3
:101D7000FC01208387E290E027E230E0F901208136
:101D80002D7FFC01208387E290E027E230E0F9011B
:101D900020812B7FFC01208387E290E027E230E066
:101DA000F9012081277FFC01208387E290E027E270
:101DB00030E0F90120812F7EFC01208361C0898100
:101DC000813071F587E290E027E230E0F90120816F
:101DD0002160FC01208387E290E027E230E0F901F6
:101DE00020812D7FFC01208387E290E027E230E014
:101DF000F90120812B7FFC01208387E290E027E21C
:101E000030E0F9012081277FFC01208387E290E008
:101E100027E230E0F90120812F7EFC01208330C0D1
:101E20008981823069F587E290E027E230E0F901AC
:101E300020812E7FFC01208387E290E027E230E0C2
:101E4000F90120812260FC01208387E290E027E2F3
:101E500030E0F90120812B7FFC01208387E290E0B4
:101E600027E230E0F9012081277FFC01208387E20F
:101E700090E027E230E0F90120812F7EFC012083F1
:101E800086E290E026E230E0F90120812064FC0146
:101E90002083000086E290E0FC0180818295869597
:101EA00086958370882F90E081709927892B91F710
:101EB00084E290E0FC01808191810F90DF91CF91CD
:101EC0000895CF93DF9300D0CDB7DEB789836A83BF
:101ED0008981883090F58A818130A9F48BE390E084
:101EE0002BE330E0F9012081622F2981422F50E05D
:101EF00021E030E002C0220F331F4A95E2F7262B83
:101F0000FC012083CDC08A81882309F0C9C08BE3FE
:101F100090E02BE330E0F9012081622F2981422FEC
:101F200050E021E030E002C0220F331F4A95E2F773
:101F300020952623FC012083B3C089818830C0F11D
:101F400089818031A8F58981885089838A8181308F
:101F5000A9F488E390E028E330E0F9012081622FC2
:101F60002981422F50E021E030E002C0220F331FD0
:101F70004A95E2F7262BFC0120838FC08A818823B3
:101F800009F08BC088E390E028E330E0F90120817C
:101F9000622F2981422F50E021E030E002C0220F61
:101FA000331F4A95E2F720952623FC01208375C054
:101FB00089818031C0F189818931A8F58981805179
:101FC00089838A818130A9F485E390E025E330E0BC
:101FD000F9012081622F2981422F50E021E030E079
:101FE00002C0220F331F4A95E2F7262BFC01208303
:101FF00056C08A81882309F052C085E390E025E32A
:1020000030E0F9012081622F2981422F50E021E048
:1020100030E002C0220F331F4A95E2F720952623B5
:10202000FC0120833CC089818831D0F189818032D4
:10203000B8F58981885189838A818130A9F482E346
:1020400090E022E330E0F9012081622F2981422FC4
:1020500050E021E030E002C0220F331F4A95E2F742
:10206000262BFC0120831CC08A818823C9F482E3CB
:1020700090E022E330E0F9012081622F2981422F94
:1020800050E021E030E002C0220F331F4A95E2F712
:1020900020952623FC01208303C0000001C000001E
:1020A00000000F900F90DF91CF910895CF93DF93B1
:1020B00000D0CDB7DEB789836A838981883090F5F7
:1020C0008A818130A9F48AE390E02AE330E0F901C3
:1020D0002081622F2981422F50E021E030E002C0B0
:1020E000220F331F4A95E2F7262BFC012083CDC037
:1020F0008A81882309F0C9C08AE390E02AE330E0AE
:10210000F9012081622F2981422F50E021E030E047
:1021100002C0220F331F4A95E2F720952623FC01C7
:102120002083B3C089818830C0F189818031A8F5CE
:102130008981885089838A818130A9F487E390E07E
:1021400027E330E0F9012081622F2981422F50E0FE
:1021500021E030E002C0220F331F4A95E2F7262B20
:10216000FC0120838FC08A81882309F08BC087E31C
:1021700090E027E330E0F9012081622F2981422F8E
:1021800050E021E030E002C0220F331F4A95E2F711
:1021900020952623FC01208375C089818031C0F100
:1021A00089818831A8F58981805189838A8181302C
:1021B000A9F484E390E024E330E0F9012081622F68
:1021C0002981422F50E021E030E002C0220F331F6E
:1021D0004A95E2F7262BFC01208356C08A8188238A
:1021E00009F052C084E390E024E330E0F90120815B
:1021F000622F2981422F50E021E030E002C0220FFF
:10220000331F4A95E2F720952623FC0120833CC02A
:1022100089818831D0F189818032B8F589818851EE
:1022200089838A818130A9F481E390E021E330E061
:10223000F9012081622F2981422F50E021E030E016
:1022400002C0220F331F4A95E2F7262BFC012083A0
:102250001CC08A818823C9F481E390E021E330E047
:10226000F9012081622F2981422F50E021E030E0E6
:1022700002C0220F331F4A95E2F720952623FC0166
:10228000208303C0000001C0000000000F900F90E9
:10229000DF91CF910895CF93DF931F92CDB7DEB733
:1022A00089838981883080F489E390E0FC01808112
:1022B000882F90E02981222F30E002C095958795E4
:1022C0002A95E2F781704BC089818830B0F089810E
:1022D000803198F489818850898386E390E0FC01FD
:1022E0008081882F90E02981222F30E002C09595CF
:1022F00087952A95E2F7817032C089818031B0F0EC
:102300008981883198F489818051898383E390E0C1
:10231000FC018081882F90E02981222F30E002C0CB
:10232000959587952A95E2F7817019C08981883142
:10233000B0F08981803298F489818851898380E363
:1023400090E0FC018081882F90E02981222F30E0ED
:1023500002C0959587952A95E2F7817000C00F908D
:10236000DF91CF910895CF93DF931F92CDB7DEB762
:10237000898361E089810E94610F00000F90DF91E5
:10238000CF910895CF93DF931F92CDB7DEB78983A6
:102390008981882399F485E590E025E530E0F9010D
:1023A00020812E7FFC01208385E590E025E530E04B
:1023B000F90120812D7FFC01208341C0898181307A
:1023C00099F485E590E025E530E0F9012081216070
:1023D000FC01208385E590E025E530E0F9012081CE
:1023E0002D7FFC0120832BC08981823099F485E503
:1023F00090E025E530E0F90120812E7FFC0120836B
:1024000085E590E025E530E0F90120812260FC01BE
:10241000208315C08981833091F485E590E025E51E
:1024200030E0F90120812160FC01208385E590E006
:1024300025E530E0F90120812260FC0120838BE555
:1024400090E02BE530E0F90120812064FC0120833D
:1024500000000F90DF91CF910895CF93DF9300D0CC
:10246000CDB7DEB79A83898389819A819093F801E9
:102470008093F70100000F900F90DF91CF910895A6
:102480001F920F9200905F000F9211242F933F93A1
:102490004F935F936F937F938F939F93AF93BF936C
:1024A000EF93FF93CF93DF93CDB7DEB78091F70122
:1024B0009091F801FC0109950000DF91CF91FF9107
:1024C000EF91BF91AF919F918F917F916F915F91AC
:1024D0004F913F912F910F9000925F000F901F90AE
:1024E00018951F920F9200905F000F9211242F9366
:1024F0003F934F935F936F937F938F939F93AF938C
:10250000BF93EF93FF93CF93DF93CDB7DEB7809167
:10251000FB019091FC01FC0109950000DF91CF9136
:10252000FF91EF91BF91AF919F918F917F916F91AB
:102530005F914F913F912F910F9000925F000F900C
:102540001F9018951F920F9200905F000F92112418
:102550002F933F934F935F936F937F938F939F93AB
:10256000AF93BF93EF93FF93CF93DF93CDB7DEB7D6
:102570008091F9019091FA01FC0109950000DF9129
:10258000CF91FF91EF91BF91AF919F918F917F91EB
:102590006F915F914F913F912F910F9000925F004B
:1025A0000F901F901895CF93DF93CDB7DEB78FE5CF
:1025B00090E02FE530E0F90120812068FC012083C4
:1025C0000000DF91CF910895CF93DF931F92CDB795
:1025D000DEB789838981813041F08981882329F49C
:1025E00082E290E020EAFC01208386E590E026E587
:1025F00030E0F90120812460FC01208380E290E03A
:1026000028E4FC01208300000F90DF91CF91089512
:10261000CF93DF93CDB7DEB78DE290E02DE230E0CF
:10262000F90120812061FC01208361E08DE00E949E
:10263000561061E08FE00E94561060E08EE00E942C
:10264000561061E08CE00E9456108DE290E02DE281
:1026500030E0F90120812064FC0120830000DF913B
:10266000CF910895CF93DF931F92CDB7DEB78983C3
:1026700061E08CE00E94610F60E08CE00E94610FDD
:102680008FE290E02981FC01208300008EE290E03F
:10269000FC018081881F8827881F882F90E0817027
:1026A0009927892B99F300000F90DF91CF9108951E
:1026B000CF93DF93CDB7DEB783E590E023E530E03D
:1026C000F90120812F7BFC01208383E590E023E545
:1026D00030E0F9012081277FFC01208389E590E02B
:1026E00029E530E0F90120812160FC012083000010
:1026F000DF91CF910895CF93DF931F92CDB7DEB7CF
:10270000898389818823E1F483E590E023E530E043
:10271000F90120812160FC01208383E590E023E51D
:1027200030E0F90120812D7FFC01208383E590E0DA
:1027300023E530E0F90120812B7FFC0120837BC061
:1027400089818130E1F483E590E023E530E0F9010F
:1027500020812E7FFC01208383E590E023E530E09B
:10276000F90120812260FC01208383E590E023E5CC
:1027700030E0F90120812B7FFC0120835CC089813E
:102780008230E1F483E590E023E530E0F901208137
:102790002160FC01208383E590E023E530E0F9012E
:1027A00020812260FC01208383E590E023E530E076
:1027B000F90120812B7FFC0120833DC0898183307A
:1027C000E1F483E590E023E530E0F90120812E7FFC
:1027D000FC01208383E590E023E530E0F9012081CE
:1027E0002D7FFC01208383E590E023E530E0F901B3
:1027F00020812460FC0120831EC089818430D9F4AB
:1028000083E590E023E530E0F90120812160FC01BF
:10281000208383E590E023E530E0F90120812D7FDE
:10282000FC01208383E590E023E530E0F90120817D
:102830002460FC01208300000F90DF91CF91089568
:10284000CF93DF9300D0CDB7DEB79A838983898198
:102850009A81909300028093FF0100000F900F90E7
:10286000DF91CF9108951F920F9200905F000F9219
:1028700011242F933F934F935F936F937F938F9385
:102880009F93AF93BF93EF93FF93CF93DF93CDB716
:10289000DEB78091FF0190910002FC0109950000D4
:1028A000DF91CF91FF91EF91BF91AF919F918F9168
:1028B0007F916F915F914F913F912F910F90009277
:1028C0005F000F901F9018951F920F9200905F006D
:1028D0000F9211242F933F934F935F936F937F93A6
:1028E0008F939F93AF93BF93EF93FF93CF93DF9318
:1028F000CDB7DEB78091FD019091FE01FC010995F5
:102900000000DF91CF91FF91EF91BF91AF919F9127
:102910008F917F916F915F914F913F912F910F9088
:1029200000925F000F901F901895CF93DF931F9236
:10293000CDB7DEB78AE290E02AE230E0F9012081EB
:102940002061FC0120838AE290E02AE230E0F90174
:1029500020812860FC01208380E889838AE290E05E
:102960002AE230E0F90120812460FC012083898182
:10297000846089838981846089838981877F898351
:1029800089818F7E898389818F7D898380E490E02E
:102990002981FC01208389E290E027E6FC01208365
:1029A00000000F90DF91CF910895CF93DF931F9296
:1029B000CDB7DEB7898300008BE290E0FC01808117
:1029C000829586958770882F90E081709927892B52
:1029D00099F38CE290E02981FC01208300000F90A4
:1029E000DF91CF910895CF93DF9300D01F92CDB7A1
:1029F000DEB79B838A8319820EC08981882F90E07D
:102A00002A813B81820F931FFC0180810E94D51493
:102A100089818F5F89838981882F90E02A813B811A
:102A2000820F931FFC018081882339F700000F90EB
:102A30000F900F90DF91CF910895CF93DF9300D047
:102A4000CDB7DEB71A82198205C089819A810196B5
:102A50009A8389838BE290E0FC018081881F88271C
:102A6000881F882F90E081709927892B71F38CE261
:102A700090E0FC0180810F900F90DF91CF9108953D
:102A80000E94B11508F481E008950E94051688F0AF
:102A90009F5798F0B92F9927B751B0F0E1F0660F22
:102AA000771F881F991F1AF0BA95C9F714C0B13063
:102AB00091F00E941F16B1E008950C941F16672F25
:102AC000782F8827B85F39F0B93FCCF38695779592
:102AD0006795B395D9F73EF490958095709561957B
:102AE0007F4F8F4F9F4F0895E89409C097FB3EF4A6
:102AF00090958095709561957F4F8F4F9F4F99234B
:102B0000A9F0F92F96E9BB279395F69587957795C8
:102B10006795B795F111F8CFFAF4BB0F11F460FF88
:102B20001BC06F5F7F4F8F4F9F4F16C0882311F0E0
:102B300096E911C0772321F09EE8872F762F05C0F4
:102B4000662371F096E8862F70E060E02AF09A958F
:102B5000660F771F881FDAF7880F9695879597F984
:102B60000895990F0008550FAA0BE0E8FEEF16161E
:102B70001706E807F907C0F012161306E407F50771
:102B800098F0621B730B840B950B39F40A2661F0E5
:102B9000232B242B252B21F408950A2609F4A14088
:102BA000A6958FEF811D811D089597F99F6780E895
:102BB00070E060E008959FEF80EC089500240A948F
:102BC0001616170618060906089500240A94121608
:102BD0001306140605060895092E0394000C11F43B
:102BE000882352F0BB0F40F4BF2B11F460FF04C0E8
:102BF0006F5F7F4F8F4F9F4F089557FD9058440F41
:102C0000551F59F05F3F71F04795880F97FB991F4B
:102C100061F09F3F79F08795089512161306140608
:102C2000551FF2CF4695F1DF08C016161706180695
:102C3000991FF1CF86957105610508940895E89470
:102C4000BB2766277727CB0197F908950E94B11516
:102C500008F48FEF08950E943E160C94EC150E9424
:102C6000DE1538F00E94E51520F0952311F00C9444
:102C7000D5150C94DB1511240C9420160E94FD151B
:102C800070F3959FC1F3950F50E0551F629FF001BF
:102C9000729FBB27F00DB11D639FAA27F00DB11DD8
:102CA000AA1F649F6627B00DA11D661F829F222761
:102CB000B00DA11D621F739FB00DA11D621F839FE8
:102CC000A00D611D221F749F3327A00D611D231FBE
:102CD000849F600D211D822F762F6A2F11249F570C
:102CE00050409AF0F1F088234AF0EE0FFF1FBB1F0F
:102CF000661F771F881F91505040A9F79E3F5105CE
:102D000080F00C94D5150C9420165F3FE4F3983EA8
:102D1000D4F3869577956795B795F795E7959F5F77
:102D2000C1F7FE2B880F911D9695879597F9089509
:102D3000FB01DC018D91019080190110D9F3990BF1
:062D40000895F894FFCF96
:102D460077616974696E672061646D696E20617070
:102D560070726F76616C2E2E2E0D0077656C636F28
:102D66006D650D00577269746520746865206E750F
:102D76006D626572206F6620746865206C656420DC
:102D86007468656E206F6E206F72206F66662074A1
:102D96006F20636F6E74726F6C2069740D5072656C
:102DA60073732061206E756D62657220626574773B
:102DB60065656E203120616E64203520746F206356
:102DC6006F6E74726F6C207468652064696D6D69CE
:102DD6006E670D5772697465206F666620746F2082
:102DE6007475726E2064696D6D6572206F66660D0E
:102DF6005072657373207320746F207369676E6FEA
:102E060075740D006F6666003100320033003400C1
:102E1600350031206F6E0032206F6E0033206F6EEA
:102E26000034206F6E0035206F6E0031206F6666AD
:102E36000032206F66660033206F66660034206FAE
:102E460066660035206F66660073004163636573CE
:102E5600732044656E6965640057726F6E6720550E
:102E66007365726E616D65206F7220506173737742
:102E76006F726400757365723D0070617373776F6E
:102E860072643D0057656C636F6D6500312D3100CE
:102E9600322D3100332D3100342D3100352D3100E6
:102EA600312D3000322D3000332D3000342D3000DE
:102EB600352D3000362D3000362D3100362D3300BD
:102EC600362D3400362D3500362D32003000657231
:042ED600726F7200A5
:00000001FF
